:020000040800F2
:10000000081E0020450100081B260008551F000897
:1000100019260008150E0008692B000800000000D2
:100020000000000000000000000000004F26000853
:100030003D0E0008000000004D2600085126000873
:100040005F0100085F0100085F0100085F01000810
:100050005F0100085F0100085F0100085F01000800
:100060005F0100085F0100085F0100085F010008F0
:100070005F0100085F0100085F0100085F010008E0
:100080005F0100085F0100085F0100085F010008D0
:100090005F0100085F0100085F0100085F010008C0
:1000A0005F0100085F0100085F0100085F010008B0
:1000B000B12600085F0100085F0100085F01000829
:1000C0005F0100085F0100085F0100085F01000890
:1000D0005F010008AD290008252A00085F0100081B
:1000E0005F0100085F0100085F0100085F01000870
:1000F0005F0100085F0100085F0100085F01000860
:100100005F0100085F0100085F0100085F0100084F
:100110005F0100085F0100085F0100085F0100083F
:100120005F0100085F0100085F0100085F0100082F
:10013000DFF80CD000F066FC0048004725350008C9
:10014000081E00200648804706480047FEE7FEE7F5
:10015000FEE7FEE7FEE7FEE7FEE7FEE7FEE7FEE777
:10016000AD26000831010008202A04DB203A21FADC
:1001700002F00021704721FA02F3D040C2F12002C0
:10018000914008431946704740EA01039B0703D09A
:1001900009E008C9121F08C0042AFAD203E011F8C6
:1001A000013B00F8013B521EF9D27047D2B201E088
:1001B00000F8012B491EFBD270470022F6E710B56C
:1001C00013460A4604461946FFF7F0FF204610BDC5
:1001D000421E12F8013F002BFBD111F8013B02F83F
:1001E000013B002BF9D1704730B505462A460B4636
:1001F00012F8010B13F8014B08B1A042F8D01CB162
:10020000002802D06D1CF1E7284630BD10B5044629
:1002100004E00B7800F8013B03B1491C521EF8D2F0
:10022000204610BD421C10F8011B0029FBD1801A8A
:100230007047034611F8012B00F8012B002AF9D171
:1002400018467047F0B480EA0102D40F4200B2EBC6
:10025000410F02D20246084611464A0042D0C30D61
:10026000DDB2C1F3C752AD1A202D35DAC1F3160144
:1002700041F4000204B15242C5F1200602FA06F12F
:100280002A411044B3EBD05F23D0C4B1012DA0EBC1
:10029000C35009DCF0BC4FF0004202EAC352DBB2AB
:1002A00000F5000000F0F3BA400000F1807000EBB0
:1002B000C350A0F1807040EAD170490009E04908BC
:1002C00041EAC071A0EBC35000F50000400800EB0C
:1002D000C350F0BC00F0D2BA6142012202EB4101EE
:1002E000001BF6E7F0BC704781F00041AAE780F000
:1002F0000040A7E780EA010210B502F00043400089
:1003000022D04A001FD0010E01EB1261C0F356004B
:10031000C2F3560240F4000042F40002A0FB0220A7
:1003200000047F39140400D0401C50EA124001D46C
:100330004000491EC2B20C0604EBD010401C40081D
:10034000802A02D003E0002010BD20F00100002927
:1003500000DA0020184310BD420005D0C0F3C75298
:100360005242914201DC0020704700EBC1507047BF
:100370002DE9FE4F804681EA0300C00F0C46009035
:1003800021F0004123F00045B8EB0200A94105D25D
:100390004046214690461C460B46024623F000404C
:1003A000104347D0270DC7F30A00C3F30A51029048
:1003B000401A019040286BDAC3F3130040F4801B0D
:1003C0000098924620B10023D2EB030A63EB0B0B9B
:1003D00001985946C0F14002504600F0E0F9064647
:1003E0000D4650465946019A00F0E8F910EB080016
:1003F0006141002487EA115284EAE7731A4340D02E
:10040000009A62B3019A012A4FEA075215DC001BD9
:1004100061EB02014FF0004202EA0752CDE90042CF
:10042000001C41F5801132462B4600F06DFA03B0F6
:10043000BDE8F08F40462146F9E7001B61EB020161
:10044000001C41F5801300185B412018A2F500172D
:1004500047EB030140EAD570B6196D4111E06D0814
:100460004FEA360645EAC0754FEA0752001B61EBBA
:100470000201001C41F5801149084FEA30000019C3
:10048000514132462B4603B0BDE8F04F00F02DBA83
:100490000098012240000023D0EB020263EBE073DE
:1004A000009821464FEAE074B8EB000061EB0401CC
:1004B000E9E783F000435BE781F0004158E72DE96D
:1004C000FE4F81EA030404F0004421F0004100944F
:1004D0004FF0000B23F0004350EA01045ED052EAD3
:1004E00003045BD0C3F30A54C1F30A552C44A4F2AD
:1004F000F3340194A0FB0254C1F3130141F48011C1
:10050000C3F3130343F4801301FB024400FB034EC7
:10051000840A970A44EA815447EA8357A4FB076890
:1005200002958D0A05FB07854FEA932C04FB0C54BA
:100530002705029D4FEA065847EA1637B5EB08052E
:100540006EEB070C870E920E47EA811742EA831280
:10055000A7FB0201B6EB0B0164EB00042B0D43EA91
:100560000C335E1844EB1C50DA465146E7FB02019F
:10057000C5F313044FEA0B3343EA14534FEA043232
:10058000019C43EA0603A4F10C040294009CCDE90B
:1005900000B400F0B9F903B0BDE8F08F00200146C7
:1005A000F9E72DE9F04D81EA030404F0004B21F056
:1005B000004514464FF0000A23F0004150EA0502BE
:1005C00020D054EA01021DD0C5F30A570246C5F3F4
:1005D0001303C1F31300C1F30A5640F4801543F42A
:1005E0008013A7EB0608101BD64608F2FD3873EB04
:1005F000050002D308F1010801E092185B41B8F14F
:10060000000F03DA00200146BDE8F08D00204FF412
:100610008011064684460EE0171B73EB050705D3D1
:10062000121B63EB050306434CEA010C49084FEA31
:10063000300092185B4150EA0107EDD152EA030005
:1006400012D082EA040083EA0501084305D0101B9A
:10065000AB4106D20122002306E000224FF0004306
:1006600002E06FF0010253101AEB06004CEB085148
:1006700010EB0A0041EB0B01BDE8F04D00F035B97D
:1006800000F0004220F00040C10DC0F3160040F41D
:1006900000007F2901DA00207047962903DCC1F1B0
:1006A0009601C84001E096398840002AF4D04042C3
:1006B000704700F0004230F000400AD0C10D01F553
:1006C0006071C0F3160042EA0151C20840071143AD
:1006D000704700200146704701F0004330B421F01C
:1006E000004150EA010206D00A0DA2F56072C1F382
:1006F0001301002A02DC30BC00207047440F44EA9A
:10070000C104C100E01830BC00EBC25000F0B6B824
:1007100030B50B46014600202022012409E021FAD1
:1007200002F59D4205D303FA02F5491B04FA02F5CE
:100730002844151EA2F10102F1DC30BD2DE9F05F65
:100740000546002092469B46884606468146402440
:100750001BE02846414647462246FFF705FD534623
:100760005A46C01A914110D311461846224600F04D
:1007700016F82D1A67EB01084F462246012000218A
:1007800000F00DF817EB00094E41201EA4F1010402
:10079000DFDC484631462A464346BDE8F09F202A22
:1007A00004DB203A00FA02F1002070479140C2F1C8
:1007B000200320FA03F3194390407047202A06DBF8
:1007C000CB17203A41FA02F043EAE07306E041FA1F
:1007D00002F3D040C2F1200291400843194670470D
:1007E0000FB4002300B589B00CA900910B996FF0EC
:1007F0000042CB601E4B06931E4B07930423CDE9AA
:1008000001321D4A089202466B46002000F0A6F90C
:1008100009B05DF814FB70B586B006464FF0FF30A6
:100820000091CDE90101002015460C4604903246A6
:10083000694604A8FFF7D4FF02460498211825B1A1
:1008400008B1084600E020462860049800280DD032
:10085000002A02DD0098884208D0081B0094CDE9E8
:1008600001043246694604A8FFF7BAFF06B070BD1E
:10087000950D0008B30D0008290A00080029A8BF3B
:100880007047401C490008BF20F00100704710B4B9
:10089000B0FA80FC00FA0CF050EA010404BF10BC6E
:1008A000704749B1CCF1200421FA04F411FA0CF19B
:1008B00018BF012121430843A3EB0C01CB1D4FEAD4
:1008C00000614FEA102042BF002010BC704700EBCF
:1008D000C35010440029A4BF10BC7047401C4900FD
:1008E00008BF20F0010010BC704710B5141E73F152
:1008F000000408DA401C41F1000192185B411A43E0
:1009000001D120F0010010BD2DE9F04D92469B462B
:1009100011B1B1FA81F202E0B0FA80F220329046D1
:10092000FFF73DFF04460F4640EA0A0041EA0B018B
:1009300053465A46084313D0114653EA010019D0D2
:10094000C8F140025046FFF70FFC05460E465046E0
:1009500059464246FFF723FF084305D0012004E033
:1009600020463946BDE8F08D0020054346EAE07692
:100970002C4337430A986305E40AA0EB08000022E1
:10098000FD0A44EA47540A3002D500200146E9E74F
:10099000010510196941DDE9084500196941BDE803
:1009A000F04DA2E7C1F30A52C1F3130140F2FF3345
:1009B00041F480119A4202DA00200146704740F269
:1009C00033439A42A2F2334202DC5242FFF7CCBBDD
:1009D000FFF7E5BE30B5041E71F1000404DB4FF0F3
:1009E0000044404264EB0101141E73F1000405DB76
:1009F0001C464FF00043524263EB0403994208BF88
:100A0000904230BD064C074D06E0E06840F001031F
:100A100094E8070098471034AC42F6D3FFF78CFBFC
:100A20000437000824370008C0B24FF4F05100F03A
:100A3000D1B900002DE9FF4F087883B09946FF280F
:100A400005D0491C2D2804D00024002008E00020F7
:100A50000BE00124F9E700EB800003EB4000491CA8
:100A60000B78FF2BF7D104B1404200230293147896
:100A700019461D462D2C01D02B2C04D1521C2D2C97
:100A800013D000240294AA461478FF2C0FD00A2514
:100A9000A3FB057801FB05814FF0000C03FB0C1153
:100AA000521CE3194AEB0101EEE70124EAE7814415
:100AB00053EA010002D019F5C87F06DA0398002135
:100AC000C0E9001107B0BDE8F08F0025AE4E2F46FB
:100AD000DFF8B882184600F091F9CDE90001B9F1CC
:100AE000000002DAC9F1000400E004460023A74A2E
:100AF0001AEB030B42EB045A12E0E00707D02A4638
:100B0000334638464146FFF7DAFC074688462A4610
:100B1000334610461946FFF7D2FC05460E466410D0
:100B2000002CEAD1DDE90001B9F1000F5A46534625
:100B300006DAFFF736FD3A464346FFF732FD05E099
:100B4000FFF7BDFC3A464346FFF7B9FC029A0AB1EB
:100B500081F00041039AC2E90001B3E72DE9FF4F9C
:100B60001F468DB0D7E901464FF0FF382E2045468D
:100B70004FF000090B90B9696D1C0E988847396ACF
:100B8000824688470028F6D1BAF1FF3F0AD024F404
:100B9000D064002E11DDBAF12B0F08D0BAF12D0F61
:100BA0000BD102E0404611B08DE744F48064B9698E
:100BB0006D1C0E9888478246761E6946600501D5F1
:100BC0002D2000E02B208DF8000001F1010B0DF12C
:100BD000200809E0B9696D1C0E98884782460F9875
:100BE00044F40074761E0560002E02DDBAF1300F69
:100BF000F0D00B998A453ED144F0800406E00F996D
:100C0000681CA9F1010944F400740860B9696D1CFD
:100C1000761E0E98884782463028F0D02BE00B993C
:100C20008A4505D1200603D444F08004761E18E0DE
:100C3000504602F0B3F808B30DF11301761E44F4E8
:100C400000748B4508D2AAF130000BF8010B200686
:100C500007D5A9F1010003E0200602D409F1010043
:100C60008146A00502D50F99681C0860B9696D1C02
:100C70000E9888478246002ED1DC53E0002E51DDCD
:100C8000BAF1650F02D0BAF1450F4BD1A00549D595
:100C9000B9696D1C24F44074761E0E98884782460C
:100CA000002E0CDD2B2804D0BAF12D0F07D144F40F
:100CB0008074B9696D1C0E9888478246761EE005DF
:100CC00001D52D2100E02B2108F8011BCDF82C8047
:100CD00021E00DF12901761E44F4007488450CD200
:100CE000AAF1300010F0FF0088F8000002D10B9943
:100CF000884509D908F1010806E0E00501D5244836
:100D000001E042F20F708146B9696D1C0E98884768
:100D100082460F980560002E04DD504602F03EF832
:100D20000028D6D1F9690E988847FF208BF800007B
:100D300088F800000020069007904B466A4608A9F4
:100D400006A8FFF777FEA00502D46FF001002AE79E
:100D500014F0240F0AD0E00714D1DDE90612386838
:100D6000031D3B600068C0E900120BE0DDE90601ED
:100D7000FFF7B2FC0146E00704D13868021D3A6073
:100D80000068016028460EE7000014400000F03FB4
:100D9000F1D8FFFF426842B1016811F8013B23B16D
:100DA000521EC0E90012184670470121C160881E1A
:100DB000704742685AB1C368016843B983688B427F
:100DC00005D0491E521CC0E90012002070474FF0A8
:100DD000FF3070477F2801D9002208E0064A02EB65
:100DE0005002C007127800D1120902F00F02012050
:100DF0009040084070470000B83600080EB540F239
:100E0000334202920022CDE900221346FFF77CFD17
:100E100003B000BDFEE7000010B504460846FFF72A
:100E200048FC02460B4603A1204601F09FFE2046E7
:100E300010BD0000252E3266000000007047FEE75E
:100E40002DE9F84FDFF8C891002409F1040A0AF1EE
:100E5000040B23460F270BF1040ED1E00125A5401A
:100E600006EA0502AA4276D1DFF8A8C14E68A6EBD1
:100E70000C0866452BD00DDC032E34D005DC36B3D0
:100E8000012E19D0022E2FD11BE0112E16D0122EBA
:100E90002AD119E0B8F5881F19D006DCB8F5803FD3
:100EA00015D0B8F5801F1FD111E0B8F5001F0ED086
:100EB000B8F5041F18D10AE0CB6815E0CB681B1DFC
:100EC00012E0CB6808330FE0CB680C330CE08B6882
:100ED0002BB1012B4FF0080303D0456104E004233C
:100EE00002E0056100E00023FF2A01D8064601E088
:100EF00000F104064FEA840501D9A5F12005D6F8D2
:100F0000008007FA05FC28EA0C0803FA05F548EA10
:100F10000508C6F800804D68ED0070D53E4DAE69FD
:100F200046F00106AE61AD6924F0030605F0010547
:100F300000953A4D06EB050CDCF80850A607360F75
:100F400007FA06F825EA0805DFF8D480404503D102
:100F50004FF0000825E052E0DFF8C880404502D19C
:100F60004FF001081DE0DFF8C080404502D14FF08E
:100F7000020816E0DFF8B480404502D14FF00308C4
:100F80000FE0DFF8AC80404502D14FF0040808E0E4
:100F9000DFF8A080404502D14FF0050801E04FF096
:100FA000060808FA06F848EA0508CCF808804D68F3
:100FB000D9F80060ED034D4601D5164300E0964395
:100FC0002E604D68DAF80060AD03554601D5164332
:100FD00000E096432E604D68DBF80060ED025D4650
:100FE00001D5164300E096432E604D68DEF80060A0
:100FF000AD02754601D5164300E096432E60641C91
:101000000A681646E2407FF429AFBDE8F88F000079
:1010100000040140000011100010024000000140D7
:1010200000080140000C0140001001400014014084
:1010300000180140001C01400AB101617047090419
:10104000FBE70000014880687047000000000020B6
:1010500002488168027811448160704700000020D6
:10106000074810B5016841F010010160032000F04D
:1010700077F8002000F006F800F024F8002010BDFA
:101080000020024070B50D4D04464FF47A71287867
:10109000B1FBF0F00A490968B1FBF0F000F0FAFA90
:1010A00048B9102C07D200222146501E00F038F813
:1010B00000206C6070BD012070BD000000000020A9
:1010C0000C0000200D4808B5816941F001018161E3
:1010D000816901F001010091C16941F08051C16154
:1010E000C06900F080500090052000F039F80448F5
:1010F000416821F0E061416008BD0000001002403D
:1011000000000140002809DB00F01F02012191408E
:101110004009800000F1E020C0F800117047000095
:10112000F0B40E4B1B680C46C3F30223C3F1070552
:10113000042D00D90425191D072901D2002300E040
:10114000DB1E012606FA05F1491E214099409E400A
:10115000761E16403143F0BC01F032BD0CED00E0CC
:10116000064900F0070208684FF6FF03184040EAFE
:101170000220034A10430860704700000CED00E0B5
:101180000000FA052DE9F0470F46050061D0434EF7
:10119000306800F00700B84209D2306820F007003C
:1011A00038433060306800F00700B84251D12868F9
:1011B0003B4C810712D5400703D5606840F4E060DE
:1011C00060602878000703D5606840F46050606074
:1011D0006068A96820F0F000084360602878C007C4
:1011E00028D06868012810D02168022810D089070B
:1011F00000292EDA616821F0030101436160FFF7E5
:1012000021FF804641F288390DE021688903EFE72C
:101210008901EDE7FFF716FFA0EB0801494502D968
:101220000320BDE8F0876068696800F00C00B0EB4F
:10123000810FEFD1306800F00700B8420BD9306859
:1012400020F0070038433060306800F00700B842F3
:1012500001D00120E5E72878400705D56068E968F6
:1012600020F4E060084360602878000706D56068D5
:10127000296920F4605040EAC100606000F038F84D
:101280006168084AC1F30311515CC840064908600F
:1012900006480068FFF7F6FE0020C2E70020024083
:1012A00000100240A03600080C00002004000020BE
:1012B0000448054900684968044AC1F30221515CA9
:1012C000C84070470C00002000100240B0360008F3
:1012D0000448054900684968044AC1F3C221515CC9
:1012E000C84070470C00002000100240B0360008D3
:1012F00012A185B00FC98DE80F0014A0144A006830
:1013000004905168134801F00C03042B10D0082BF3
:101310000ED1C1F38343C9031DF803000AD55168F8
:1013200004AAC1F34041515C0A4A5043B0FBF1F0BA
:1013300005B0704708494843FAE700000203040576
:10134000060708090A0B0C0D0E0F10100102000011
:101350000010024000127A0000093D002DE9F84F0C
:10136000040070D02078C04DC00749D06868C0F331
:101370008100012807D06868C0F38100022809D1E4
:101380006868C00306D52868800339D560680028DE
:10139000E7D035E06068B0F5803F0BD010B1B0F514
:1013A000A02F11D0286820F480302860286820F40D
:1013B000802002E0286840F480302860606890B1A6
:1013C000FFF740FE06460AE0286840F480202860C7
:1013D000F0E700BFFFF736FE801B642873D828684B
:1013E0008003F7D50CE0FFF72DFE064605E000BFB1
:1013F000FFF728FE801B6428F0D828688003F7D404
:1014000020789A4E80074FF001094FF0000839D537
:10141000686810F00C0F07D06868C0F381000228DC
:1014200009D16868C00306D42868800714D52069EC
:10143000012808D110E02069B0B1C6F80090FFF78C
:1014400001FE074605E00AE1FFF7FCFDC01B02288C
:10145000C4D828688007F7D52868616920F0F800AB
:1014600040EAC10028600DE0C6F80080FFF7EAFD01
:10147000074604E0FFF7E6FDC01B022823D82868D2
:101480008007F7D4207800072CD57948A169D9B115
:10149000C0F80090FFF7D6FD074604E0FFF7D2FD45
:1014A000C01B02280FD8686A8007F7D571484FF42F
:1014B000FA510068B0FBF1F0009000BF0098411EA7
:1014C0000091FAD20EE080E0C0F80080FFF7BAFD8C
:1014D000074604E0FFF7B6FDC01B022875D8686A0E
:1014E0008007F7D42078400760D5E8690027C0005E
:1014F00008D4E86940F08050E861E869012700F00D
:10150000805000905C480168C90513D40168834687
:1015100041F480710160FFF795FD824606E000BF4F
:10152000FFF790FDA0EB0A0064284ED8DBF800001E
:10153000C005F5D5E06801280AD008B1052813D008
:10154000286A20F001002862286A20F0040002E0E6
:10155000286A40F001002862E06841F2883B98B1B7
:10156000FFF770FD82460BE0286A40F00400286215
:10157000EEE700BFFFF766FDA0EB0A0159455AD818
:10158000286A8007F6D50CE0FFF75CFD824605E08F
:10159000FFF758FDA0EB0A0159454CD8286A80078F
:1015A000F6D41FB1E86920F08050E861E06988B3A3
:1015B0006968C1F38101022944D00228C6F860801D
:1015C00004D0FFF73FFD044638E034E0FFF73AFD72
:1015D000074604E0FFF736FDC01B02282BD8286819
:1015E0008001F7D4206AB0F5803F05D16868A16812
:1015F00020F4003008436860D4E9080108436968B2
:1016000021F4741108436860C6F86090FFF71AFD72
:10161000044606E025E000BFFFF714FD001B02288A
:1016200009D828688001F7D51BE000BFFFF70AFD45
:10163000001B022802D90320BDE8F88F286880012A
:10164000F4D40EE00128F7D06868226A00F48031F3
:10165000914204D1616A00F47010884201D00120E7
:10166000EAE70020E8E700000010024000004242E4
:10167000800442420C000020007000404FF0E02146
:101680000428086903D020F004000861704740F086
:101690000400FAE710B5401EB0F1807F01D30120AD
:1016A00010BD4FF0E02460610F21601701F088FA4F
:1016B0000020A06107202061002010BD7047704706
:1016C00010B5040003D094F83D0010B107E00120EC
:1016D00010BD002084F83C00204600F01FF80220D6
:1016E00084F83D00211D206800F0E8FF012084F807
:1016F000460084F83E0084F83F0084F8400084F8F7
:10170000410084F8420084F8430084F8440084F8DF
:10171000450084F83D00002010BD000008B50068B9
:10172000B0F1804F12D10A48C16941F00101C16195
:10173000C069022200F00100009000211C20FFF788
:10174000EFFCBDE808401C20FFF7DCBC08BD000032
:101750000010024090F83D10012901D0012070478F
:10176000022180F83D100168CA6842F00102CA6097
:1017700000680E4988420ED00D4988420BD0B0F166
:10178000804F08D00B49884205D00B49884202D0CF
:101790000A49884204D1816801F00701062903D073
:1017A000016841F00101016000207047002C0140F8
:1017B000003401400004004000080040000C0040DC
:1017C000704770B50446006801694FF00005C943D1
:1017D000890715D4C168C943890711D4E91E01617D
:1017E00001202077206880698007204602D0FFF71B
:1017F000E7FF04E000F098F8204600F061F9257753
:1018000020680169C943490717D4C168C94349071A
:1018100013D46FF0040101610220207720688069F1
:1018200010F4407F204602D0FFF7CAFF04E000F02A
:101830007BF8204600F044F9257720680169C94308
:10184000090716D4C168C943090712D46FF008010B
:101850000161042020772068C0698007204602D0FB
:10186000FFF7AEFF04E000F05FF8204600F028F933
:10187000257720680169C943C90617D4C168C943DF
:10188000C90613D46FF01001016108202077206889
:10189000C06910F4407F204602D0FFF791FF04E0BA
:1018A00000F042F8204600F00BF925772068016926
:1018B000C943C90708D1C168C943C90704D1891EF2
:1018C0000161204600F058F920680169C943090602
:1018D00009D4C168C943090605D46FF080010161CC
:1018E0002046FFF7EBFE20680169C943490609D489
:1018F000C168C943490605D46FF040010161204623
:1019000000F054F920680169C94389060BD4C16805
:10191000C943890607D46FF0200101612046BDE864
:101920007040FFF7CCBE70BD704770B5044690F8AC
:101930003C000D4601280AD0012084F83C0042B149
:10194000042A18D0082A2AD00C2A4DD139E00220C6
:1019500070BD206800F006FF2068816941F0080131
:1019600081612068816921F00401816120688169B9
:101970002A69114311E0206800F024FF2068816982
:1019800041F4006181612068816921F48061816195
:10199000206881692A6941EA0221816124E0206886
:1019A00000F046FF2068C16941F00801C16120686C
:1019B000C16921F00401C1612068C1692A6911432C
:1019C00011E0206800F068FF2068C16941F40061FF
:1019D000C1612068C16921F48061C1612068C16969
:1019E0002A6941EA0221C161002084F83C0070BDEF
:1019F00010B5040003D094F83D0010B107E00120B9
:101A000010BD002084F83C00204600F01FF80220A2
:101A100084F83D00211D206800F050FE012084F86C
:101A2000460084F83E0084F83F0084F8400084F8C3
:101A3000410084F8420084F8430084F8440084F8AC
:101A4000450084F83D00002010BD000000B585B0C1
:101A5000002100910191029103910068144988428C
:101A600023D11448C16941F00201C161C16901F08B
:101A700002010491816941F008018161806900F0EF
:101A8000080004900C48416821F4406141F0E06195
:101A900041F4006141602020009002200190032069
:101AA000039069460548FFF7CBF905B000BD00007B
:101AB000000400400010024000000140000C014002
:101AC0007047000010B50446022249B104290ED027
:101AD000082913D094F84100012816D0012010BD28
:101AE00094F83E000128F9D184F83E200FE094F8E4
:101AF0003F000128F2D184F83F2008E094F840002C
:101B00000128EBD184F8402001E084F84120012233
:101B1000206800F019FE13492068134A884201D05A
:101B2000904203D1436C43F40043436420688842ED
:101B30000DD090420BD0B0F1804F08D00B498842B5
:101B400005D00B49884202D00A49884204D18168F5
:101B500001F00701062903D0016841F0010101608D
:101B6000002010BD002C0140003401400004004062
:101B700000080040000C00400068B0F1804F0FD119
:101B80000848D0F8941149B15FF00001C0F89411F1
:101B900005490888401C088001F0F2BC0121F5E7E6
:101BA00070470000000023424C000020704770B5D1
:101BB000040004D094F83900002510B106E001209B
:101BC00070BD84F83850204600F022F8242084F8B4
:101BD00039002068C16821F40051C160204600F03E
:101BE00089FE2068016921F4904101612068416902
:101BF00021F02A0141612068C16841F40051C160AF
:101C0000E563202084F8390084F83A00002070BD94
:101C100070B586B0002400940194029403942E4E73
:101C200003682E49022003222D4DB34226D18B6931
:101C300043F480438B618B6903F4804304938B6985
:101C400043F004038B618969039201F0040104915C
:101C50000102CDE9001069462846FFF7F1F8281582
:101C6000CDE90004694628460294FFF7E9F800220E
:101C700011462520FFF754FA252028E0194EB342DB
:101C800027D1CB6943F40033CB61CB6903F4003334
:101C900004938B6943F004038B618969039201F01B
:101CA000040104910421CDE9001069462846FFF79C
:101CB000C7F80820CDE90004694628460294FFF7DA
:101CC000BFF8012200212620FFF72AFA2620FFF77D
:101CD00019FA06B070BD0000003801400010024043
:101CE00000080140004400400420FFF7C7BC70B565
:101CF000054600244FF47A7603E0304600F004F8FD
:101D0000641CAC42F9D370BD70B54FF0E0240022E2
:101D100065690949A36909684843A1699942FCD0EA
:101D200002D2A3EB010302E0A5EB010633441A44FF
:101D30000B468242F1D370BD4000002010B586B042
:101D4000002002900D48816941F040018161806965
:101D50000B4C00F0400004902020009001200190E6
:101D60000220039069462046FFF76AF801222021ED
:101D70002046FFF761F906B010BD000000100240D8
:101D8000001801400FB401990968C9434906FAD403
:101D90000199486004B070470FB407E0019A1268D7
:101DA000D2435206FAD4019A5160401C01780029AE
:101DB000F4D104B070470000084A10B54FF08043DA
:101DC000C2E900310021C2E9021010461161FFF79B
:101DD00077FCBDE810400148FFF7BCBC5C1900204F
:101DE00030B587B00C4605461C216846FEF7E5F97C
:101DF0000F4A0E48C2E900040024C2E902458020CF
:101E0000146190611046FFF7F3FD6020CDE90004F6
:101E100002200290042269460548FFF786FD04214E
:101E20000348FFF74FFE07B030BD0000000400403C
:101E30001419002010B50F4C0D49C4E90010002002
:101E4000A0600C21E060C4E90401A0612046FFF716
:101E5000AEFE08B1FEF7F3FF2068C16841F0100143
:101E6000C1602068C16841F02001C16010BD000060
:101E7000003801405408002010B50F4C0D49C4E94A
:101E800000100020A0600C21E060C4E90401A06102
:101E90002046FFF78CFE08B1FEF7D1FF2068C1682D
:101EA00041F01001C1602068C16841F02001C160AB
:101EB00010BD000000440040940800200FB440F220
:101EC000014170B5ADF5816D00240DF21C436846EB
:101ED000DDF8182400F05EFE0A4D6E4608E0286822
:101EE0000168C9434906FBD4315D4160641CE4B21A
:101EF0006846FEF797F9A042F1D80DF5816D70BCE8
:101F00005DF814FB540800200FB440F2014170B595
:101F1000ADF5816D00240DF21C436846DDF81824F0
:101F200000F038FE0A4D6E4608E028680168C94393
:101F30004906FBD4315D4160641CE4B26846FEF79B
:101F400071F9A042F1D80DF5816D70BC5DF814FBFC
:101F500094080020FEE700002DE9F0430546002329
:101F6000ABB01646A44C184601E0E0545B1CE25CA2
:101F7000002AFAD11DA8FEF74FFF29469E48FEF71A
:101F800058F99E4C9C482168FEF722F91DA99A48F1
:101F9000FEF71EF998486168FEF71AF9984D012E70
:101FA00066D0022E7DD0032E5FD1262295490DA842
:101FB000FEF7EAF8934CE08CADF85A00A06A17904F
:101FC000A08DADF86000E08DADF8620004F1300145
:101FD0000922894619A8FEF7D7F894F839008DF838
:101FE0006D0094F83A008DF86E00E06B1C9034227E
:101FF00010A96846FEF7C8F80DAFEE6997E80E0025
:102000007D48B04700260DF1640810AF26227D49B7
:102010000DA8FEF7B9F8E08CADF85A00A06A179049
:10202000A08DADF86000E08DADF862000922494650
:102030004046FEF7A9F894F839008DF86D0094F841
:102040003A008DF86E00E06B1C90342239466846E9
:10205000FEF79AF80DF1340ED5F820C09EE80E0078
:10206000FF20E047761C032ED0DB2BB0BDE8F083C9
:10207000262265490DA8FEF787F8634CE08CADF881
:102080005A00A06A1790A08DADF86000E08DADF801
:10209000620004F130010922894619A8FEF774F89C
:1020A00000E048E094F839008DF86D0094F83A00AB
:1020B0008DF86E00E06B1C90342210A96846FEF784
:1020C00063F80DAFEE6997E80E004B48B047002665
:1020D0000DF1640810AF26224B490DA8FEF754F805
:1020E000E08CADF85A00A06A1790A08DADF86000A2
:1020F000E08DADF86200092249464046FEF744F8FB
:1021000094F839008DF86D0094F83A008DF86E005F
:10211000E06B1C90342239466846FEF735F80DF125
:10212000340ED5F820C09EE80E00FF20E047761C54
:10213000032ED0DB99E7262234490DA8FEF724F8B8
:10214000324CE08CADF85A00A06A1790A08DADF823
:102150006000E08DADF8620004F13001092289468B
:1021600019A8FEF711F894F839008DF86D0094F86D
:102170003A008DF86E00E06B1C90342210A968467E
:10218000FEF702F80DAFEE6997E80E001A48B04767
:1021900000260DF1640810AF26221C490DA8FDF79A
:1021A000F3FFE08CADF85A00A06A1790A08DADF84F
:1021B0006000E08DADF86200092249464046FDF717
:1021C000E3FF94F839008DF86D0094F83A008DF82B
:1021D0006E00E06B1C90342239466846FDF7D4FF50
:1021E0000DF1340ED5F820C09EE80E00FF20E04728
:1021F000761C032ED0DB38E7A41900204400002011
:1022000014000020D4180020540800209408002056
:1022100070B50D4C0025C4F8A8510C48016821F494
:1022200070410160016841F440510160C4F8AC5153
:10223000022004F5D474FFF767FD0120206002201E
:10224000FFF762FD256070BD00802142040C014053
:102250000E4810B5816986B041F00801816180693E
:10226000012400F0080004904FF44060CDE9000420
:102270000320CDE9024069460548FEF7E1FD054827
:10228000C0F8A841C0F8AC4106B010BD0010024033
:10229000000C01400080214270B50D4C0025C4F8AF
:1022A000A8510C48016821F470410160016841F4B3
:1022B000405101600126C4F8AC61022004F5D474D9
:1022C000FFF722FD26600220FFF71EFD256070BD8E
:1022D00000802142040C01402DE9F0478146174857
:1022E0000024016821F470410160016841F400415B
:1022F0000160134E254627464FF00108C6F8A87125
:102300000220FFF701FDC6F8A8816006040ED6F88A
:102310002C0108B1641CE4B20220FFF7F5FC6D1C2F
:10232000EDB2082DEAD3B9F1000F04D0FFF770FF2A
:102330002046BDE8F087FFF7AFFFF9E7040C014046
:10234000008021422DE9F04106461248016821F43F
:1023500070410160016841F4405101600E4C00275A
:10236000C4F8A8713D464FF00108F009C4F8AC016B
:102370007006060EC4F8A8810220FFF7C5FCC4F859
:10238000A8710220FFF7C0FC6D1CEDB2082DECD344
:10239000BDE8F081040C01400080214270B50D4879
:1023A000016821F470410160016841F4405101600D
:1023B000094C0120C4F8AC01C4F8A801022004F5BE
:1023C000D474FFF7A1FC002565600220FFF79CFC98
:1023D000256070BD040C0140008021420E4810B5FC
:1023E000016821F470410160016841F440510160CD
:1023F0000A4C0020C4F8A801C4F8AC01022004F57E
:10240000D474FFF781FC012020606060BDE81040BB
:102410000220FFF779BC0000040C0140008021423B
:1024200070B513480024016821F47041016001680F
:1024300041F4004101600F4D0126C5F8AC61022056
:10244000FFF762FCC5F8A8610220FFF75DFC07E01A
:10245000641CE4B2FA2C03D9FFF7C0FF012070BD61
:10246000D5F82C010028F3D1C5F8A80170BD0000F3
:10247000040C0140008021422A4800B5816985B0E2
:1024800041F0080181618069694600F0080004900C
:102490004FF480700090012001900290032003907F
:1024A0002148FEF7CDFC21490020C1F8A001FFF72B
:1024B000CFFE80216B2000F091F86420FFF717FC1D
:1024C00000216B2000F08AF8032000F053F8002070
:1024D00000F04BF8322000F06AF80021382000F0BC
:1024E0007DF800216A2000F079F80021232000F017
:1024F00075F88021372000F071F8752000F018F889
:10250000682802D0012005B000BD01216B2000F039
:1025100065F800216C2000F061F8322000F047F8E7
:102520000020F0E700100240000C01400080214232
:1025300010B50446FFF732FFD020FFF703FFFFF787
:102540006FFF2046FFF7FEFEFFF76AFFFFF726FF4B
:10255000D120FFF7F7FEFFF763FF0020FFF7BCFE77
:102560000446FFF73BFF204610BDC006010E1C20AD
:1025700000F034B8C006010E1B2000F02FB8BC28B4
:1025800001D3012110E0622801D302210CE02A28A6
:1025900001D3032108E0142801D3042104E00A2810
:1025A00001D3052100E006211A2000F017B810B56C
:1025B00004464FF47A70844201D9044602E0042CA8
:1025C00000D20424B0FBF4F0401EC1B2192000F088
:1025D00005F86008BDE81040FFF7D1BF70B50C46A4
:1025E0000546FFF7DBFED020FFF7ACFEFFF718FF34
:1025F00050B92846FFF7A6FEFFF712FF2046FFF767
:10260000A1FEFFF70DFF18B1FFF7E8FE012070BD36
:10261000FFF7E4FE002070BDFEE770470848074959
:1026200041600021C18414210185818405498160B4
:102630008903C16004490161704700000000F04156
:10264000D819002000004D43CDCCCCBD7047704759
:10265000FEF7FEBC30B58FB028216846FDF7ADFD12
:1026600014210AA8FDF7A9FD012000900004002410
:10267000CDE901040225CDE907504FF4E01009909F
:102680006846FEF76BFE00B1FEE70F20CDE90A05B4
:102690004FF48060CDE90C4002210AA80E94FEF7A9
:1026A00071FD002800D0FEE70FB030BD704700007C
:1026B0000148FFF786B800005C190020F0B50268F9
:1026C0001C4B1D4D1D4E1E4F1E4C4FF0804C984212
:1026D00009D0A04207D0604505D0A84203D0B0423F
:1026E00001D0B84204D122F0700E4A6842EA0E02CC
:1026F000984209D0A04207D0604505D0A84203D037
:10270000B04201D0B84203D122F44075CA682A43CE
:102710004D6922F080022A4302608A68C2620A6818
:102720008262984201D0A04201D10969016301216E
:102730004161F0BD002C0140000400400008004051
:10274000000C00400034014010B501F01F030121CE
:10275000046A99408C430462016A9A401143016201
:1027600010BD0000F0B5026A22F001020262036AA5
:1027700042688469124E24F073050C682C4323F0E0
:1027800002058B682B430D4DA84201D0B04205D104
:1027900023F00807CB683B4323F00403A84201D091
:1027A000B04205D14D6922F4407215438A692A432B
:1027B00042608461496841630362F0BD002C0140BE
:1027C00000340140F0B5026A22F010020262026A8F
:1027D000436884690D6824F4E64444EA05248D685E
:1027E00022F0200242EA05120F4D104EA84201D0FD
:1027F000B04206D1CF6822F0800242EA071222F0EE
:102800004002A84201D0B04207D14D6923F4406391
:1028100043EA85038D6943EA85034360846149681F
:1028200081630262F0BD0000002C014000340140D1
:10283000F0B5026A22F480720262026A4368C469D7
:1028400022F4007224F073050C68124E2C438D683C
:1028500042EA05220E4DA84201D0B04206D1CF680F
:1028600022F4006242EA072222F48062A84201D0E8
:10287000B04207D14D6923F4405343EA05138D69F3
:1028800043EA05134360C4614968C1630262F0BD55
:10289000002C01400034014030B5026A22F480521D
:1028A0000262046A4268C3690D6823F4E64343EA9E
:1028B00005238D6824F4005444EA0534084DA842E9
:1028C00002D0084DA84204D14D6922F4804242EA68
:1028D00085124260C36149680164046230BD000032
:1028E000002C0140003401400FB400991298886315
:1028F00004B0704770B5044600680169E26821F4CD
:102900004051114301612169A0680843616908438E
:102910002168CA6841F20C639A430243CA60206886
:102920004169A26921F44071114341611E49206847
:10293000884202D1FEF7CCFC01E0FEF7B9FC00EBC7
:10294000C00101EB0012606864218000B2FBF0F36B
:10295000B3FBF1F36FF018067343B2FBF0F5B2FB73
:10296000F0F605EB8305322303EB0515B5FBF1F516
:10297000B6FBF1F605F0F00505EB0615B2FBF0F637
:10298000B2FBF0F0B0FBF1F06FF01802504306EB31
:10299000800003EB0010B0FBF1F0216800F00F00A5
:1029A0002844886070BD000000380140F8B51A481E
:1029B00001680A68194CD24392060AD46FF02002CB
:1029C0000A600168496823786268D1542178491CFB
:1029D000217000680168C943C9061CD4016800253C
:1029E000406800900D48001F017879B901210170FD
:1029F00000200B4B2278616803E00E5C1E54401CE3
:102A000080B28242F9D8044800F048F82178606822
:102A1000FDF7D3FB2570F8BD5408002014000020FA
:102A200054000020F8B51A4801680A68194CD243CE
:102A300092060AD46FF020020A6001684968637840
:102A4000E268D1546178491C617000680168C9432B
:102A5000C9061CD401680025406800900D48001F7D
:102A6000017879B90121017000200B4B6278E1688F
:102A700003E00E5C1E54401C80B28242F9D8044828
:102A800000F00CF86178E068FDF797FB6570F8BD21
:102A90009408002014000020540400202DE9F04187
:102AA000064628490068DFF8A080284F00250C154D
:102AB000ADF5006D88421BD125A12648FDF794FB9A
:102AC00070B124492246491C6846FDF79FFB6846C1
:102AD00000F013FDFDF700FEC8F80400C7F894519C
:102AE00021466846FDF769FB21461A48FDF765FB5C
:102AF0001949306888421ED118A11948FDF774FBA6
:102B000080B1C7F8945116492246491C0DF58060E2
:102B1000FDF77CFB0DF5806000F0EFFCFDF7DCFDC0
:102B2000C8F8000021460DF58060FDF746FB214600
:102B30000B48FDF742FB0B4805700DF5006DBDE835
:102B4000F081000000380140D81900200000234225
:102B500054000000540000200044004050000000D9
:102B60005404002010000020FEE700000FB4084BC2
:102B700010B504A902AA039800F018F9044602A9A6
:102B8000002000F0B5FC204610BC5DF814FB0000EE
:102B9000F13400087CB5044600201D461646002985
:102BA0000BD0491ECDE90041044B6A462946304608
:102BB00000F0FCF8009A002111707CBDDB340008A5
:102BC0000907090E002804DB00F1E02080F800145A
:102BD000704700F00F0000F1E02080F8141D7047EE
:102BE00001480068704700005000002002E008C85B
:102BF000121F08C1002AFAD170477047002001E077
:102C000001C1121F002AFBD1704700000149086072
:102C100070470000500000202DE9FF5F82B00021C6
:102C2000DDE90430020DDDF840B0034318D044F66E
:102C30001050A2F2FF3242431514119801281FD000
:102C4000A5EB0B00401C5FEA000A4FF000064E4F58
:102C5000DFF83891B046504615D5CAF1000413E0AC
:102C6000119801244AA3012801D16FEA0B010298AF
:102C7000119AC0E90031C0E9024206B0BDE8F09FF8
:102C8000CBF10000DFE704460021404A491842EB3F
:102C90000450CDE9001012E0E00707D032463B4671
:102CA00040464946FDF70BFC8046894632463B4686
:102CB00010461946FDF703FC06460F466410002C2B
:102CC000EAD1DDE90401DDE90023BAF1000F06DAFB
:102CD000FDF7F5FB42464B46FDF7F1FB05E0FDF73E
:102CE00060FC42464B46FDF75CFC04460E46002263
:102CF000284BFDF76FFE03D84FF0FF30014607E089
:102D00000022254B20463146FDF732FBFDF74AFEF7
:102D1000102409E0002C0ADB0A220023FDF70EFD37
:102D2000039B30321A55641E50EA0102F2D1641C32
:102D3000039AC4F111031444119A012A03D0012209
:102D400008430DD10AE0084304D000204FF0110BD6
:102D5000119072E7A3EB0B056D1E0DE05B4504DDE2
:102D60004FF0000205F1010504E003DA4FF0000224
:102D7000A5F10105002AECD002981199C0E90231B1
:102D8000C0E9004579E70000000014400000F03F72
:102D9000300000000000F0430000E03F30380A2817
:102DA00001D2012070470020704700002DE9FF4F3D
:102DB00095B09B468946064600250FE2252877D127
:102DC00000242746F84A0121059400E0044316F840
:102DD000013F203B01FA03F01042F7D130782A2856
:102DE00011D06FF02F033078A0F13002092A16D8E5
:102DF000059A44F0020402EB820203EB4202104403
:102E0000761C0590EFE759F8042B0592002A03DAA7
:102E1000504244F40054059044F00204761C30788B
:102E20002E2816D116F8010F44F004042A280DD0DC
:102E30006FF02F023078A0F13003092B09D807EB8F
:102E4000870302EB4303C718761CF3E759F8047BAA
:102E5000761C30786C280FD006DC4C2817D06828F8
:102E60000DD06A2814D104E0742810D07A280FD12C
:102E70000DE044F400140AE044F4801401E044F44A
:102E800040147278824202D104F58014761C761CBC
:102E9000307866280BD013DC582877D009DC00285E
:102EA00075D04528F6D04628F4D047281AD19DE1A0
:102EB00018E0632835D0642879D0652812D195E1CF
:102EC000702873D008DC6728F1D069286FD06E288D
:102ED0000DD06F2806D1B5E073282CD0752875D099
:102EE000782874D05A46179990476D1C75E1C4F341
:102EF0000250022809D003280DD0D9F80010042868
:102F00000DD00D6009F1040967E1D9F80010EA1746
:102F1000C1E90052F6E7D9F800100D80F2E70D7014
:102F2000F0E719F8041B8DF8001000208DF801005F
:102F3000EA46012003E059F804AB4FF0FF30610787
:102F40004FF0000102D40DE008F101018846B942BA
:102F50000FDA8045F8DB1AF808100029F4D108E0F0
:102F600008F1010188468142FADB1AF808100029AD
:102F7000F6D105985B46A0EB080721463846179A1C
:102F800000F094FA284400EB080507E04DE029E141
:102F90000DE01AF8010B5A4617999047B8F101084D
:102FA000F7D25B4621463846179A13E142E00A22DF
:102FB0000092C4F302524FF0000A022A08D059F8D6
:102FC00004CB032A4FEAEC710AD00DE029E02AE095
:102FD00009F1070121F00702F2E802C1914609E078
:102FE0000FFA8CFC4FEAEC71042A03D14FFA8CFCE7
:102FF0004FEAEC71002907DA0A460021DCF1000CE7
:1030000061EB02012D2202E0220504D52B228DF86E
:103010000420012203E0E20701D02022F7E79046D6
:1030200059E00A2102E010220DE010214FF0000AC1
:1030300000910BE010224FF0000A44F0040408272E
:10304000009203E008224FF0000A0092C4F30252FB
:10305000022A05D059F804CB0021032A08D009E040
:1030600009F1070121F00702F2E802C1914605E0EB
:103070001FFA8CFC042A01D10CF0FF0C4FF0000861
:10308000220728D5702806D0009B83F0100353EA4E
:103090000A0305D00EE040228DF80420012208E04A
:1030A0005CEA010206D030228DF804208DF805007C
:1030B00002229046009B83F0080353EA0A030AD1D8
:1030C0005CEA010201D1620705D530228DF80420A7
:1030D0004FF001087F1E582804D034A003900EA89A
:1030E00002900DE036A0F9E753466046009AFDF7DE
:1030F00025FB84460398825C0298401E0290027071
:103100005CEA0100F0D1029806A9081A00F1200A31
:10311000600702D524F4803400E00127574502DD22
:10312000A7EB0A0000E0002000EB0A0100900598E0
:103130004144401A0590E00306D45B462146179AA5
:10314000059800F0B3F90544002706E001A85A46A7
:10315000C05D179990476D1C7F1C4745F6DBE00367
:103160000CD55B462146179A059800F09FF9054457
:1031700004E030205A46179990476D1C0099481E6C
:1031800000900029F5DC08E0029802995A46007880
:10319000491C0291179990476D1CBAF10001AAF1E0
:1031A000010AF1DC65E10000092801003031323309
:1031B0003435363738396162636465660000000073
:1031C000303132333435363738394142434445465D
:1031D0000000000000F058F90544761C3078002803
:1031E0007FF4ECAD19B02846BDE8F08F620700D43B
:1031F000062709F1070222F0070CFCE80223E1464A
:1032000003F000485FEA080C02D00FF2702C0DE0CA
:103210005FEA045C02D50FF2682C07E05FEAC47C29
:1032200002D00FF2602C01E0AFF2700C4FF0FF38CB
:1032300023F00043CDF850C065280CD006DC4528AB
:1032400009D046281DD047283DD13DE0662818D03A
:1032500067287ED138E00021112F01DB112000E02A
:10326000781CCDE9000106A90EA8FFF7D5FCDDE921
:103270000F010E9A03910021009207F1010A0491B7
:103280004DE04FF000400097CDE9011006A90EA8CF
:10329000FFF7C2FCDDE90F0203920E9B1199002299
:1032A000DDF80CA00093049211B9791C00EB010A1F
:1032B000B7EB0A0004D4C0F1FF3007F1010A049013
:1032C000AAEB0700019044E0012F00DA012700215A
:1032D000112F01DD112000E03846CDE9000106A9DB
:1032E0000EA8FFF799FCDDE90F010E9A039100216A
:1032F00004910092BA4621070CD40399514500DA93
:103300008A46BAF1010F05DD009AAAF10101515C6C
:10331000302908D0B84202DA10F1040F06DA012190
:10332000CDE9011015E0AAF10101E9E7002805DC6B
:10333000049901440491AAEB000102E0411C5145AB
:1033400000DD8A460499401A401C01904FF000406D
:103350000290200704D40198504501DBCDF8048089
:1033600000208DF84F0002980DF14F07B0F1004F8B
:1033700025D02B200E9002984FF0020800280CDA7E
:10338000404202902D200E9007E00A210298FDF79E
:10339000BFF93031029007F8011DB8F10001A8F122
:1033A0000108F2DC02980028EFD1791E0E9808700F
:1033B000307800F0200040F0450007F8020D12A818
:1033C000C01B00F107081498007800B1012000EB41
:1033D0000A01019801EBE07105984144401A401E32
:1033E0000590E00306D45B462146179A059800F045
:1033F0005DF805441498007818B15A46179990471B
:103400006D1CE00324D55B462146179A059800F011
:103410004DF805441CE00498002807DBDDE90301B2
:10342000884203DD0098405C179901E0179930202D
:103430005A469047049805F10105401C04900198F4
:10344000401E019004D12E205A46179990476D1CBA
:10345000BAF10001AAF1010ADDDC05E017F8010B61
:103460005A46179990476D1CB8F10001A8F1010860
:10347000F4DC5B462146179A0598ABE62D00000068
:103480002B000000200000002DE9F041044600253B
:103490001E461746880404D405E039462020B0476C
:1034A0006D1C641EF9D52846BDE8F0812DE9F04178
:1034B000044600251E469046C80301D5302700E08B
:1034C0002027880404D505E041463846B0476D1CE6
:1034D000641EF9D52846BDE8F0814A68002A06D066
:1034E0000A68531C0B6010704868401E48607047A3
:1034F0000A68531C0B601070704730B583B00446E7
:10350000FFF76EFB05460020CDE90000024621468C
:103510006846FDF780F92846FFF778FBDDE90001F2
:1035200003B030BDFDF79CFDFFF794F8FEF7DCFB20
:10353000FEF704FC0F4C4FF4165528466169884786
:10354000A1692846884700211320FEF749FC41F66F
:103550001F416320FEF730FCFEF78EFFFFF75EF899
:10356000054C012205A02168FEF7F6FC6420FEF759
:10357000BEFBF6E714000020D819002074310000CB
:103580002DE9F043414CDFF80881A1B0A18CB8F8D7
:103590000000814277D8D4E90010FCF7A5FE6061F5
:1035A000A669054601213046FCF7D6FE2946FCF700
:1035B0009EFEE169FCF746FE2169FCF79BFE07468B
:1035C0002946E068FCF796FE814631462846FCF71E
:1035D0008BFEA168FCF78EFE4946FCF733FE3946A8
:1035E000FCF730FEFDF74CF8E18C084400B2E084B3
:1035F0002849C4E906568D4203DA0A2801DD0D2068
:10360000E084B4F92600218D884200DDE184B4F91C
:1036100026100020002902DD1F498D4200D9E084D8
:10362000A8F800003D221D490FA8FCF7ADFD1B487E
:1036300010F83D1F8DF8791041788DF87A10817857
:103640008DF87B10C1788DF87C1001798DF87D1094
:1036500041798DF87E1081798DF87F10C1798DF8D0
:103660008010017A8DF88110407A8DF88200E08C0C
:103670000E90382213A96846FCF786FD0FAD95E839
:103680000F00FFF731F921B0BDE8F083D819002011
:103690004C0000209A99993ECDCC4CBE14190020C4
:1036A00000000000000000000102030406070809F2
:1036B0000000000001020304DDDDDDDDDCBBBBDD5D
:1036C000DDDDDDDDDDDDDDDD9888888888888888C2
:1036D00077777777778888888555555666666666E2
:1036E00066666666666888888333333222222222C1
:1036F000222222222228888D2E7478743D220000F6
:1037000022000000243700080000002054000000C0
:10371000EC2B00087837000854000020B41D00008E
:10372000FC2B000801000000100000000000000059
:103730000024F4000000000000000000D408002075
:10374000D40C0020D4100020D4140020351E000812
:10375000791E0008991D0008851D0008BD1E00087F
:10376000091F000848000000F8360008003700086C
:08377000000000000000000051
:0400000508000131BD
:00000001FF
