:020000040800F2
:10000000A81D002045010008931B0008C516000824
:10001000911B0008D7090008511E000800000000CD
:10002000000000000000000000000000971B000816
:10003000D909000800000000951B0008991B000862
:100040005F0100085F0100085F0100085F01000810
:100050005F0100085F0100085F0100085F01000800
:100060005F0100085F0100085F0100085F010008F0
:100070005F0100085F0100085F0100085F010008E0
:100080005F0100085F0100085F0100085F010008D0
:100090005F0100085F0100085F0100085F010008C0
:1000A0005F0100085F0100085F0100085F010008B0
:1000B000F91B00085F0100085F0100085F010008EC
:1000C0005F0100085F0100085F0100085F01000890
:1000D0005F010008BD1C0008351D00085F01000815
:1000E0005F0100085F0100085F0100085F01000870
:1000F0005F0100085F0100085F0100085F01000860
:100100005F0100085F0100085F0100085F0100084F
:100110005F0100085F0100085F0100085F0100083F
:100120005F0100085F0100085F0100085F0100082F
:10013000DFF80CD000F0ECFB004800474930000825
:10014000A81D00200648804706480047FEE7FEE756
:10015000FEE7FEE7FEE7FEE7FEE7FEE7FEE7FEE777
:10016000F51B000831010008202A04DB203A21FA9F
:1001700002F00021704721FA02F3D040C2F12002C0
:100180009140084319467047D2B201E000F8012BB4
:10019000491EFBD270470022F6E710B513460A4607
:1001A00004461946FFF7F0FF204610BD30B505465E
:1001B0002A460B4612F8010B13F8014B08B1A04276
:1001C000F8D01CB1002802D06D1CF1E7284630BDE4
:1001D000421C10F8011B0029FBD1801A7047F0B4B3
:1001E00080EA0102D40F4200B2EB410F02D2024674
:1001F000084611464A0042D0C30DDDB2C1F3C752D2
:10020000AD1A202D35DAC1F3160141F4000204B114
:100210005242C5F1200602FA06F12A411044B3EB1E
:10022000D05F23D0C4B1012DA0EBC35009DCF0BCDA
:100230004FF0004202EAC352DBB200F5000000F0CA
:1002400095BA400000F1807000EBC350A0F18070BF
:1002500040EAD170490009E0490841EAC071A0EBC9
:10026000C35000F50000400800EBC350F0BC00F0A4
:1002700074BA6142012202EB4101001BF6E7F0BCB7
:10028000704781F00041AAE780F00040A7E780EACC
:10029000010210B502F00043400022D04A001FD0F6
:1002A000010E01EB1261C0F35600C2F3560240F496
:1002B000000042F40002A0FB022000047F39140475
:1002C00000D0401C50EA124001D44000491EC2B286
:1002D0000C0604EBD010401C4008802A02D003E03A
:1002E000002010BD20F00100002900DA0020184392
:1002F00010BD420005D0C0F3C7525242914201DC0A
:100300000020704700EBC15070472DE9FE4F80463A
:1003100081EA0300C00F0C46009021F0004123F059
:100320000045B8EB0200A94105D24046214690465F
:100330001C460B46024623F00040104347D0270DD1
:10034000C7F30A00C3F30A510290401A01904028F3
:100350006BDAC3F3130040F4801B0098924620B17F
:100360000023D2EB030A63EB0B0B01985946C0F153
:100370004002504600F0D0F906460D465046594618
:10038000019A00F0D8F910EB08006141002487EAD7
:10039000115284EAE7731A4340D0009A62B3019A7B
:1003A000012A4FEA075215DC001B61EB02014FF0F6
:1003B000004202EA0752CDE90042001C41F58011DB
:1003C00032462B4600F00FFA03B0BDE8F08F4046EE
:1003D0002146F9E7001B61EB0201001C41F5801387
:1003E00000185B412018A2F5001747EB030140EA13
:1003F000D570B6196D4111E06D084FEA360645EA31
:10040000C0754FEA0752001B61EB0201001C41F569
:10041000801149084FEA30000019514132462B46FD
:1004200003B0BDE8F04F00F0CFB9009801224000C2
:100430000023D0EB020263EBE073009821464FEA01
:10044000E074B8EB000061EB0401E9E783F00043DE
:100450005BE781F0004158E72DE9FE4F81EA030494
:1004600004F0004421F0004100944FF0000B23F011
:10047000004350EA01045ED052EA03045BD0C3F3A8
:100480000A54C1F30A552C44A4F2F3340194A0FB9E
:100490000254C1F3130141F48011C3F3130343F475
:1004A000801301FB024400FB034E840A970A44EACE
:1004B000815447EA8357A4FB076802958D0A05FB20
:1004C00007854FEA932C04FB0C542705029D4FEA45
:1004D000065847EA1637B5EB08056EEB070C870E92
:1004E000920E47EA811742EA8312A7FB0201B6EB9C
:1004F0000B0164EB00042B0D43EA0C335E1844EB54
:100500001C50DA465146E7FB0201C5F313044FEADB
:100510000B3343EA14534FEA0432019C43EA0603C7
:10052000A4F10C040294009CCDE900B400F05BF946
:1005300003B0BDE8F08F00200146F9E72DE9F04D4A
:1005400081EA030404F0004B21F0004514464FF00B
:10055000000A23F0004150EA050220D054EA0102CB
:100560001DD0C5F30A570246C5F31303C1F31300A8
:10057000C1F30A5640F4801543F48013A7EB060834
:10058000101BD64608F2FD3873EB050002D308F1C4
:10059000010801E092185B41B8F1000F03DA002076
:1005A0000146BDE8F08D00204FF4801106468446D8
:1005B0000EE0171B73EB050705D3121B63EB050356
:1005C00006434CEA010C49084FEA300092185B419F
:1005D00050EA0107EDD152EA030012D082EA04008A
:1005E00083EA0501084305D0101BAB4106D2012266
:1005F000002306E000224FF0004302E06FF001020A
:1006000053101AEB06004CEB085110EB0A0041EBBB
:100610000B01BDE8F04D00F0D7B8C10F80EAE070E3
:100620000844CA079623002100F0A0B800F0004259
:1006300030F000400AD0C10D01F56071C0F3160022
:1006400042EA0151C20840071143704700200146A9
:10065000704701F0004330B421F0004150EA01023C
:1006600006D00A0DA2F56072C1F31301002A02DC64
:1006700030BC00207047440F44EAC104C100E018B8
:1006800030BC00EBC25000F068B830B50B460146F4
:1006900000202022012409E021FA02F59D4205D321
:1006A00003FA02F5491B04FA02F52844151EA2F1CB
:1006B0000102F1DC30BD2DE9F05F054600209246D5
:1006C0009B4688460646814640241BE02846414614
:1006D00047462246FFF748FD53465A46C01A914105
:1006E00010D311461846224600F016F82D1A67EB73
:1006F00001084F4622460120002100F00DF817EBBB
:1007000000094E41201EA4F10104DFDC48463146B9
:100710002A464346BDE8F09F202A04DB203A00FA2F
:1007200002F1002070479140C2F1200320FA03F348
:10073000194390407047202A06DBCB17203A41FA34
:1007400002F043EAE07306E041FA02F3D040C2F15E
:10075000200291400843194670470029A8BF7047FE
:10076000401C490008BF20F00100704710B4B0FAE7
:1007700080FC00FA0CF050EA010404BF10BC704782
:1007800049B1CCF1200421FA04F411FA0CF118BF9C
:10079000012121430843A3EB0C01CB1D4FEA00616B
:1007A0004FEA102042BF002010BC704700EBC3503E
:1007B00010440029A4BF10BC7047401C490008BF6A
:1007C00020F0010010BC704710B5141E73F1000436
:1007D00008DA401C41F1000192185B411A4301D133
:1007E00020F0010010BD2DE9F04D92469B4611B15D
:1007F000B1FA81F202E0B0FA80F220329046FFF7BF
:100800008BFF04460F4640EA0A0041EA0B015346BB
:100810005A46084313D0114653EA010019D0C8F1D3
:1008200040025046FFF7A0FC05460E46504659468A
:100830004246FFF771FF084305D0012004E020463F
:100840003946BDE8F08D0020054346EAE0762C43AA
:1008500037430A986305E40AA0EB08000022FD0A6A
:1008600044EA47540A3002D500200146E9E7010571
:1008700010196941DDE9084500196941BDE8F04DED
:10088000A2E770B521F0004303430CD0C1F30A5531
:100890000024D5EB040564EB0403D617AD1AB3416D
:1008A00002DB0020014670BD201841EB025170BDF3
:1008B000C1F30A52C1F3130140F2FF3341F4801136
:1008C0009A4202DA00200146704740F233439A42CE
:1008D000A2F2334202DC5242FFF746BCFFF71CBFD4
:1008E00030B5041E71F1000404DB4FF000444042B7
:1008F00064EB0101141E73F1000405DB1C464FF08C
:100900000043524263EB0403994208BF904230BD5A
:10091000064C074D06E0E06840F0010394E807004C
:1009200098471034AC42F6D3FFF706FCD8350008E0
:10093000F83500082DE9F04D00231A461B1A8A41AC
:1009400003DB00200146BDE8F08DC1F30A52C1F37C
:10095000130141F480154FF0000BD10702D10018AC
:100960006D41521E0027044640F2FF11384601EB4C
:10097000620A3E468046024600204FF48011FFF78F
:10098000F3FBC2197141BB1846EB0100B4EB030C39
:1009900075EB000C04D3E41A65EB000517460E4610
:1009A000241908F101006D4180463428E3DDF9196E
:1009B00046EB0600091BA84103D24FF0FF32134655
:1009C00001E0002213461BEB070046EB0A51BDE88D
:1009D000F04DFFF7F9BEFEE77047FEE72DE9F84F4F
:1009E000DFF8C891002409F1040A0AF1040B234638
:1009F0000F270BF1040ED1E00125A54006EA050200
:100A0000AA4276D1DFF8A8C14E68A6EB0C0866456D
:100A10002BD00DDC032E34D005DC36B3012E19D0DB
:100A2000022E2FD11BE0112E16D0122E2AD119E042
:100A3000B8F5881F19D006DCB8F5803F15D0B8F599
:100A4000801F1FD111E0B8F5001F0ED0B8F5041FAC
:100A500018D10AE0CB6815E0CB681B1D12E0CB680B
:100A600008330FE0CB680C330CE08B682BB1012B03
:100A70004FF0080303D0456104E0042302E0056160
:100A800000E00023FF2A01D8064601E000F1040639
:100A90004FEA840501D9A5F12005D6F8008007FAB0
:100AA00005FC28EA0C0803FA05F548EA0508C6F82B
:100AB00000804D68ED0070D53E4DAE6946F00106F0
:100AC000AE61AD6924F0030605F0010500953A4DCD
:100AD00006EB050CDCF80850A607360F07FA06F8F7
:100AE00025EA0805DFF8D480404503D14FF000081F
:100AF00025E052E0DFF8C880404502D14FF0010800
:100B00001DE0DFF8C080404502D14FF0020816E03A
:100B1000DFF8B480404502D14FF003080FE0DFF862
:100B2000AC80404502D14FF0040808E0DFF8A08017
:100B3000404502D14FF0050801E04FF0060808FAE1
:100B400006F848EA0508CCF808804D68D9F8006036
:100B5000ED034D4601D5164300E096432E604D68E7
:100B6000DAF80060AD03554601D5164300E0964320
:100B70002E604D68DBF80060ED025D4601D516433E
:100B800000E096432E604D68DEF80060AD027546C9
:100B900001D5164300E096432E60641C0A68164691
:100BA000E2407FF429AFBDE8F88F00000004014067
:100BB0000000111000100240000001400008014038
:100BC000000C0140001001400014014000180140D9
:100BD000001C0140014880687047000000000020B0
:100BE000024881680278114481607047000000204B
:100BF000074810B5016841F010010160032000F0C2
:100C000077F8002000F006F800F024F8002010BD6E
:100C10000020024070B50D4D04464FF47A712878DB
:100C2000B1FBF0F00A490968B1FBF0F000F0FAFA04
:100C300048B9102C07D200222146501E00F038F887
:100C400000206C6070BD012070BD0000000000201D
:100C50000C0000200D4808B5816941F00101816157
:100C6000816901F001010091C16941F08051C161C8
:100C7000C06900F080500090052000F039F8044869
:100C8000416821F0E061416008BD000000100240B1
:100C900000000140002809DB00F01F020121914003
:100CA0004009800000F1E020C0F80011704700000A
:100CB000F0B40E4B1B680C46C3F30223C3F10705C7
:100CC000042D00D90425191D072901D2002300E0B5
:100CD000DB1E012606FA05F1491E214099409E407F
:100CE000761E16403143F0BC01F002B90CED00E075
:100CF000064900F0070208684FF6FF03184040EA73
:100D00000220034A10430860704700000CED00E029
:100D10000000FA052DE9F0470F46050061D0434E6B
:100D2000306800F00700B84209D2306820F00700B0
:100D300038433060306800F00700B84251D128686D
:100D40003B4C810712D5400703D5606840F4E06052
:100D500060602878000703D5606840F460506060E8
:100D60006068A96820F0F000084360602878C00738
:100D700028D06868012810D02168022810D089077F
:100D800000292EDA616821F0030101436160FFF759
:100D900021FF804641F288390DE021688903EFE7A1
:100DA0008901EDE7FFF716FFA0EB0801494502D9DD
:100DB0000320BDE8F0876068696800F00C00B0EBC4
:100DC000810FEFD1306800F00700B8420BD93068CE
:100DD00020F0070038433060306800F00700B84268
:100DE00001D00120E5E72878400705D56068E9686B
:100DF00020F4E060084360602878000706D560684A
:100E0000296920F4605040EAC100606000F038F8C1
:100E10006168084AC1F30311515CC8400649086083
:100E200006480068FFF7F6FE0020C2E700200240F7
:100E300000100240803400080C0000200400002054
:100E40000448054900684968044AC1F30221515C1D
:100E5000C84070470C000020001002409034000889
:100E60000448054900684968044AC1F3C221515C3D
:100E7000C84070470C000020001002409034000869
:100E800012A185B00FC98DE80F0014A0144A0068A4
:100E900004905168134801F00C03042B10D0082B68
:100EA0000ED1C1F38343C9031DF803000AD551686D
:100EB00004AAC1F34041515C0A4A5043B0FBF1F02F
:100EC00005B0704708494843FAE7000002030405EB
:100ED000060708090A0B0C0D0E0F10100102000086
:100EE0000010024000127A0000093D002DE9F84F81
:100EF000040070D02078C04DC00749D06868C0F3A6
:100F00008100012807D06868C0F38100022809D158
:100F10006868C00306D52868800339D56068002852
:100F2000E7D035E06068B0F5803F0BD010B1B0F588
:100F3000A02F11D0286820F480302860286820F481
:100F4000802002E0286840F480302860606890B11A
:100F5000FFF740FE06460AE0286840F4802028603B
:100F6000F0E700BFFFF736FE801B642873D82868BF
:100F70008003F7D50CE0FFF72DFE064605E000BF25
:100F8000FFF728FE801B6428F0D828688003F7D478
:100F900020789A4E80074FF001094FF0000839D5AC
:100FA000686810F00C0F07D06868C0F38100022851
:100FB00009D16868C00306D42868800714D5206961
:100FC000012808D110E02069B0B1C6F80090FFF701
:100FD00001FE074605E00AE1FFF7FCFDC01B022801
:100FE000C4D828688007F7D52868616920F0F80020
:100FF00040EAC10028600DE0C6F80080FFF7EAFD76
:10100000074604E0FFF7E6FDC01B022823D8286846
:101010008007F7D4207800072CD57948A169D9B189
:10102000C0F80090FFF7D6FD074604E0FFF7D2FDB9
:10103000C01B02280FD8686A8007F7D571484FF4A3
:10104000FA510068B0FBF1F0009000BF0098411E1B
:101050000091FAD20EE080E0C0F80080FFF7BAFD00
:10106000074604E0FFF7B6FDC01B022875D8686A82
:101070008007F7D42078400760D5E8690027C000D2
:1010800008D4E86940F08050E861E869012700F081
:10109000805000905C480168C90513D401688346FC
:1010A00041F480710160FFF795FD824606E000BFC4
:1010B000FFF790FDA0EB0A0064284ED8DBF8000093
:1010C000C005F5D5E06801280AD008B1052813D07D
:1010D000286A20F001002862286A20F0040002E05B
:1010E000286A40F001002862E06841F2883B98B12C
:1010F000FFF770FD82460BE0286A40F0040028628A
:10110000EEE700BFFFF766FDA0EB0A0159455AD88C
:10111000286A8007F6D50CE0FFF75CFD824605E003
:10112000FFF758FDA0EB0A0159454CD8286A800703
:10113000F6D41FB1E86920F08050E861E06988B317
:101140006968C1F38101022944D00228C6F8608091
:1011500004D0FFF73FFD044638E034E0FFF73AFDE6
:10116000074604E0FFF736FDC01B02282BD828688D
:101170008001F7D4206AB0F5803F05D16868A16886
:1011800020F4003008436860D4E908010843696826
:1011900021F4741108436860C6F86090FFF71AFDE7
:1011A000044606E025E000BFFFF714FD001B0228FF
:1011B00009D828688001F7D51BE000BFFFF70AFDBA
:1011C000001B022802D90320BDE8F88F286880019F
:1011D000F4D40EE00128F7D06868226A00F4803168
:1011E000914204D1616A00F47010884201D001205C
:1011F000EAE70020E8E70000001002400000424259
:10120000800442420C000020007000404FF0E021BA
:101210000428086903D020F004000861704740F0FA
:101220000400FAE710B5401EB0F1807F01D3012021
:1012300010BD4FF0E02460610F21601700F058FEF0
:101240000020A06107202061002010BD704770477A
:10125000704770B50446006801694FF00005C94346
:10126000890715D4C168C943890711D4E91E0161F2
:1012700001202077206880698007204602D0FFF790
:10128000E7FF04E000F098F8204600F096F8257794
:1012900020680169C943490717D4C168C943490790
:1012A00013D46FF004010161022020772068806967
:1012B00010F4407F204602D0FFF7CAFF04E000F0A0
:1012C0007BF8204600F079F8257720680169C9434A
:1012D000090716D4C168C943090712D46FF0080181
:1012E0000161042020772068C0698007204602D071
:1012F000FFF7AEFF04E000F05FF8204600F05DF875
:10130000257720680169C943C90617D4C168C94354
:10131000C90613D46FF010010161082020772068FE
:10132000C06910F4407F204602D0FFF791FF04E02F
:1013300000F042F8204600F040F825772068016967
:10134000C943C90708D1C168C943C90704D1891E67
:101350000161204600F032F820680169C94309069E
:1013600009D4C168C943090605D46FF08001016141
:101370002046FFF76BFF20680169C943490609D47D
:10138000C168C943490605D46FF040010161204698
:1013900000F026F820680169C94389060BD4C168AA
:1013A000C943890607D46FF0200101612046BDE8DA
:1013B0007040FFF74CBF70BD704770470068B0F1D8
:1013C000804F07D10548D0F8941121B15FF000019A
:1013D000C0F8941170470121FAE700000000234291
:1013E000704770B5040004D094F83900002510B19E
:1013F00006E0012070BD84F83850204600F022F845
:10140000242084F839002068C16821F40051C160AB
:10141000204600F0F7FB2068016921F4904101614A
:101420002068416921F02A0141612068C16841F4C6
:101430000051C160E563202084F8390084F83A0047
:10144000002070BD70B586B0002400940194029411
:1014500003942E4E03682E49022003222D4DB342E1
:1014600026D18B6943F480438B618B6903F48043FD
:1014700004938B6943F004038B618969039201F043
:10148000040104910102CDE9001069462846FFF7E6
:10149000A5FA2815CDE90004694628460294FFF70D
:1014A0009DFA002211462520FFF702FC252028E0A6
:1014B000194EB34227D1CB6943F40033CB61CB69DA
:1014C00003F4003304938B6943F004038B6189694F
:1014D000039201F0040104910421CDE90010694652
:1014E0002846FFF77BFA0820CDE900046946284624
:1014F0000294FFF773FA012211462620FFF7D8FB6A
:101500002620FFF7C7FB06B070BD00000038014081
:101510000010024000080140004400400420FFF792
:1015200075BE70B5054600244FF47A7603E0304668
:1015300000F004F8641CAC42F9D370BD70B54FF0F4
:10154000E024002265690949A36909684843A16943
:101550009942FCD002D2A3EB010302E0A5EB010605
:1015600033441A440B468242F1D370BD440000203C
:101570000FB401990968C9434906FAD40199486032
:1015800004B070470FB407E0019A1268D2435206C4
:10159000FAD4019A5160401C01780029F4D104B0BA
:1015A0007047000010B50F4C0D49C4E90010002031
:1015B000A0600C21E060C4E90401A0612046FFF7AF
:1015C00010FF08B1FFF709FA2068C16841F0100167
:1015D000C1602068C16841F02001C16010BD0000F9
:1015E000003801408408002010B50F4C0D49C4E9B3
:1015F00000100020A0600C21E060C4E90401A0619B
:101600002046FFF7EEFE08B1FFF7E7F92068C16852
:1016100041F01001C1602068C16841F02001C16043
:1016200010BD000000440040C40800200FB440F288
:10163000014170B5ADF5816D00240DF21C43684683
:10164000DDF8182400F02AFC0A4D6E4608E02868F0
:101650000168C9434906FBD4315D4160641CE4B2B2
:101660006846FEF7B5FDA042F1D80DF5816D70BC5E
:101670005DF814FB840800200FB440F2014170B5FE
:10168000ADF5816D00240DF21C436846DDF8182489
:1016900000F004FC0A4D6E4608E028680168C94362
:1016A0004906FBD4315D4160641CE4B26846FEF734
:1016B0008FFDA042F1D80DF5816D70BC5DF814FB73
:1016C000C4080020FEE7000070B50D4C0025C4F8EA
:1016D000A8510C48016821F470410160016841F48F
:1016E00040510160C4F8AC51022004F5D474FFF7F6
:1016F00025FF012020600220FFF720FF256070BD3C
:1017000000802142040C01400E4810B5816986B06A
:1017100041F0080181618069012400F00800049013
:101720004FF44060CDE900040320CDE90240694652
:101730000548FFF753F90548C0F8A841C0F8AC4187
:1017400006B010BD00100240000C01400080214294
:1017500070B50D4C0025C4F8A8510C48016821F45F
:1017600070410160016841F4405101600126C4F8F4
:10177000AC61022004F5D474FFF7E0FE266002207D
:10178000FFF7DCFE256070BD00802142040C0140A3
:101790002DE9F047814617480024016821F4704183
:1017A0000160016841F400410160134E254627465F
:1017B0004FF00108C6F8A8710220FFF7BFFEC6F877
:1017C000A8816006040ED6F82C0108B1641CE4B2AE
:1017D0000220FFF7B3FE6D1CEDB2082DEAD3B9F17C
:1017E000000F04D0FFF770FF2046BDE8F087FFF739
:1017F000AFFFF9E7040C0140008021422DE9F041E0
:1018000006461248016821F470410160016841F404
:10181000405101600E4C0027C4F8A8713D464FF0BE
:101820000108F009C4F8AC017006060EC4F8A881DE
:101830000220FFF783FEC4F8A8710220FFF77EFEA6
:101840006D1CEDB2082DECD3BDE8F081040C014015
:101850000080214270B50D48016821F4704101609B
:10186000016841F440510160094C0120C4F8AC0109
:10187000C4F8A801022004F5D474FFF75FFE002528
:1018800065600220FFF75AFE256070BD040C014020
:10189000008021420E4810B5016821F470410160BA
:1018A000016841F4405101600A4C0020C4F8A801CD
:1018B000C4F8AC01022004F5D474FFF73FFE012008
:1018C00020606060BDE810400220FFF737BE0000D6
:1018D000040C01400080214270B5134800240168C7
:1018E00021F470410160016841F4004101600F4D35
:1018F0000126C5F8AC610220FFF720FEC5F8A861FB
:101900000220FFF71BFE07E0641CE4B2FA2C03D9A7
:10191000FFF7C0FF012070BDD5F82C010028F3D1DE
:10192000C5F8A80170BD0000040C014000802142F0
:101930002A4800B5816985B041F00801816180695C
:10194000694600F0080004904FF480700090012078
:1019500001900290032003902148FFF73FF82149AE
:101960000020C1F8A001FFF7CFFE80216B2000F01E
:10197000C8F86420FFF7D5FD00216B2000F0C1F806
:10198000032000F08AF8002000F082F8322000F0F6
:10199000A1F80021382000F0B4F800216A2000F0FE
:1019A000B0F80021232000F0ACF88021372000F0AF
:1019B000A8F8752000F018F8682802D0012005B0BA
:1019C00000BD01216B2000F09CF800216C2000F08C
:1019D00098F8322000F07EF80020F0E70010024076
:1019E000000C01400080214210B50446FFF732FF91
:1019F000D020FFF703FFFFF76FFF2046FFF7FEFE43
:101A0000FFF76AFFFFF726FFD120FFF7F7FEFFF78A
:101A100063FF0020FFF7BCFE0446FFF73BFF2046B4
:101A200010BD00002DE9F0411D4614460F46064644
:101A3000FFF710FF7006000EFFF7E0FEFFF74CFF08
:101A400020B1FFF727FF0120BDE8F0813846FFF7FE
:101A5000D5FEFFF741FFFFF7FDFE012000EB46003A
:101A6000C0B2FFF7CBFEFFF737FF09E0012C0DD026
:101A70005FF00100FFF78CFE641E05F8010BE4B275
:101A8000002CF3D1FFF706FF0020DDE70020F1E78F
:101A9000C006010E1C2000F034B8C006010E1B2049
:101AA00000F02FB8BC2801D3012110E0622801D337
:101AB00002210CE02A2801D3032108E0142801D3D5
:101AC000042104E00A2801D3052100E006211A20A0
:101AD00000F017B810B504464FF47A70844201D96B
:101AE000044602E0042C00D20424B0FBF4F0401EB3
:101AF000C1B2192000F005F86008BDE81040FFF7FA
:101B0000D1BF70B50C460546FFF7A4FED020FFF705
:101B100075FEFFF7E1FE50B92846FFF76FFEFFF7AD
:101B2000DBFE2046FFF76AFEFFF7D6FE18B1FFF78F
:101B3000B1FE012070BDFFF7ADFE002070BD2DE9A4
:101B4000F0411E4615460F460446FFF783FE600629
:101B5000000EFFF753FEFFF7BFFE60B93846FFF7F0
:101B60004DFEFFF7B9FE00240CE0305DFFF746FEA6
:101B7000FFF7B2FE20B1FFF78DFE0120BDE8F08136
:101B8000641CE4B2AC42F0D3FFF784FE0020F5E71A
:101B9000FEE7704770477047FFF722B830B58FB047
:101BA00028216846FEF7F7FA14210AA8FEF7F3FA8F
:101BB0000120009000040024CDE901040225CDE9B4
:101BC00007504FF4E01009906846FFF78FF900B115
:101BD000FEE70F20CDE90A054FF48060CDE90C4007
:101BE00002210AA80E94FFF795F8002800D0FEE71E
:101BF0000FB030BD704700000148FFF72ABB00005E
:101C00004C19002070B5044600680169E26821F4AF
:101C10004051114301612169A0680843616908438B
:101C20002168CA6841F20C639A430243CA60206883
:101C30004169A26921F44071114341611E49206844
:101C4000884202D1FFF70CF901E0FFF7F9F800EB49
:101C5000C00101EB0012606864218000B2FBF0F368
:101C6000B3FBF1F36FF018067343B2FBF0F5B2FB70
:101C7000F0F605EB8305322303EB0515B5FBF1F513
:101C8000B6FBF1F605F0F00505EB0615B2FBF0F634
:101C9000B2FBF0F0B0FBF1F06FF01802504306EB2E
:101CA000800003EB0010B0FBF1F0216800F00F00A2
:101CB0002844886070BD000000380140F8B51A481B
:101CC00001680A68194CD24392060AD46FF02002C8
:101CD0000A600168496823786268D1542178491CF8
:101CE000217000680168C943C9061CD40168002539
:101CF000406800900D48001F017879B901210170FA
:101D000000200B4B2278616803E00E5C1E54401CDF
:101D100080B28242F9D8044800F048F8217860681F
:101D2000FEF739FA2570F8BD840800201400002061
:101D300084000020F8B51A4801680A68194CD2439B
:101D400092060AD46FF020020A600168496863783D
:101D5000E268D1546178491C617000680168C94328
:101D6000C9061CD401680025406800900D48001F7A
:101D7000017879B90121017000200B4B6278E1688C
:101D800003E00E5C1E54401C80B28242F9D8044825
:101D900000F00CF86178E068FEF7FDF96570F8BDB9
:101DA000C408002014000020840400202DE9F04124
:101DB000064600681C491D4C0127DFF87480002589
:101DC000884213D11BA11D48FEF7F0F910B1C4F8E9
:101DD000945106E01AA11948FEF7E8F908B1C4F8D1
:101DE000947198F800101548FEF7D5F91649306837
:101DF000884213D10FA11548FEF7D8F910B1C4F8E5
:101E0000945106E00EA11148FEF7D0F908B1C4F8CC
:101E1000947198F801100D48FEF7BDF90448001FB1
:101E20000570BDE8F0810000003801400000234249
:101E3000140000206C65645F6F6E00008400002059
:101E40006C65645F6F666600004400408404002097
:101E5000FEE700000FB4054B10B503A9044A029831
:101E600000F096F910BC5DF814FB00003530000856
:101E7000400000200FB4084B10B504A902AA039833
:101E800000F086F9044602A9002000F023FD204658
:101E900010BC5DF814FB0000D52800087CB5044692
:101EA00000201D46164600290BD0491ECDE90041F1
:101EB000044B6A462946304600F06AF9009A002130
:101EC00011707CBDBF280008490050EAC12018BF2E
:101ED00004204A0D18BF40F0010040F2FF72B2EB3F
:101EE000515F08BF40F00200012808BF052070477D
:101EF0000907090E002804DB00F1E02080F8001437
:101F0000704700F00F0000F1E02080F8141D7047CA
:101F10002DE9F0414F1E00EBC7010446D1E9000155
:101F200015461E4637F006020DD02A463346FEF708
:101F300093FA7F1E04EBC703D3E90023FEF7E5F90C
:101F400037F00602F1D1022F25D0042F13D0062F2F
:101F500018BFBDE8F0812A463346FEF77DFAD4E982
:101F60000A23FEF7D2F92A463346FEF775FAD4E97A
:101F70000823FEF7CAF92A463346FEF76DFAD4E97C
:101F80000623FEF7C2F92A463346FEF765FAD4E97E
:101F90000423FEF7BAF92A463346FEF75DFAD4E980
:101FA0000223FEF7B2F92A463346FEF755FAD4E982
:101FB0000023BDE8F041FEF7A8B90122FEF761BC9D
:101FC000FEF7A3B90022134610461146FEF7B6BA33
:101FD000024A00201107FEF754BC000001FDFFFF7C
:101FE00002E008C8121F08C1002AFAD170477047E2
:101FF000002001E001C1121F002AFBD17047000040
:102000000149086070470000800000202DE9FF5F53
:1020100082B00021DDE90430020DDDF840B0034359
:1020200018D044F61050A2F2FF3242431514119812
:1020300001281FD0A5EB0B00401C5FEA000A4FF0FF
:1020400000064E4FDFF83891B046504615D5CAF11C
:10205000000413E0119801244AA3012801D16FEA7A
:102060000B010298119AC0E90031C0E9024206B0A2
:10207000BDE8F09FCBF10000DFE704460021404AB5
:10208000491842EB0450CDE9001012E0E00707D0F8
:1020900032463B4640464946FEF7DEF980468946D1
:1020A00032463B4610461946FEF7D6F906460F461D
:1020B0006410002CEAD1DDE90401DDE90023BAF166
:1020C000000F06DAFEF7C8F942464B46FEF7C4F9A0
:1020D00005E0FEF733FA42464B46FEF72FFA044678
:1020E0000E460022284BFEF7FBFB03D84FF0FF30D3
:1020F000014607E00022254B20463146FEF705F950
:10210000FEF7D6FB102409E0002C0ADB0A2200238C
:10211000FEF7D1FA039B30321A55641E50EA0102D1
:10212000F2D1641C039AC4F111031444119A012AD8
:1021300003D0012208430DD10AE0084304D0002057
:102140004FF0110B119072E7A3EB0B056D1E0DE024
:102150005B4504DD4FF0000205F1010504E003DA00
:102160004FF00002A5F10105002AECD00298119968
:10217000C0E90231C0E9004579E7000000001440E1
:102180000000F03F300000000000F0430000E03F9E
:102190002DE9FF4F95B09B468946064600250FE284
:1021A000252877D100242746F84A0121059400E02C
:1021B000044316F8013F203B01FA03F01042F7D127
:1021C00030782A2811D06FF02F033078A0F1300238
:1021D000092A16D8059A44F0020402EB820203EBA6
:1021E00042021044761C0590EFE759F8042B059243
:1021F000002A03DA504244F40054059044F00204EB
:10220000761C30782E2816D116F8010F44F00404FD
:102210002A280DD06FF02F023078A0F13003092B5F
:1022200009D807EB870302EB4303C718761CF3E7D3
:1022300059F8047B761C30786C280FD006DC4C28CB
:1022400017D068280DD06A2814D104E0742810D063
:102250007A280FD10DE044F400140AE044F480140D
:1022600001E044F440147278824202D104F58014F3
:10227000761C761C307866280BD013DC582877D073
:1022800009DC002875D04528F6D04628F4D0472828
:102290001AD19DE118E0632835D0642879D06528EB
:1022A00012D195E1702873D008DC6728F1D0692835
:1022B0006FD06E280DD06F2806D1B5E073282CD0D2
:1022C000752875D0782874D05A46179990476D1C98
:1022D00075E1C4F30250022809D003280DD0D9F8C3
:1022E000001004280DD00D6009F1040967E1D9F848
:1022F0000010EA17C1E90052F6E7D9F800100D8086
:10230000F2E70D70F0E719F8041B8DF800100020BB
:102310008DF80100EA46012003E059F804AB4FF0C4
:10232000FF3061074FF0000102D40DE008F1010118
:102330008846B9420FDA8045F8DB1AF80810002900
:10234000F4D108E008F1010188468142FADB1AF86D
:1023500008100029F6D105985B46A0EB0807214636
:102360003846179A00F094FA284400EB080507E075
:102370004DE029E10DE01AF8010B5A4617999047F4
:10238000B8F10108F7D25B4621463846179A13E1A7
:1023900042E00A220092C4F302524FF0000A022ADD
:1023A00008D059F804CB032A4FEAEC710AD00DE0AB
:1023B00029E02AE009F1070121F00702F2E802C151
:1023C000914609E00FFA8CFC4FEAEC71042A03D124
:1023D0004FFA8CFC4FEAEC71002907DA0A4600211B
:1023E000DCF1000C61EB02012D2202E0220504D594
:1023F0002B228DF80420012203E0E20701D02022E5
:10240000F7E7904659E00A2102E010220DE0102182
:102410004FF0000A00910BE010224FF0000A44F048
:1024200004040827009203E008224FF0000A0092FB
:10243000C4F30252022A05D059F804CB0021032A22
:1024400008D009E009F1070121F00702F2E802C112
:10245000914605E01FFA8CFC042A01D10CF0FF0C18
:102460004FF00008220728D5702806D0009B83F083
:10247000100353EA0A0305D00EE040228DF8042031
:10248000012208E05CEA010206D030228DF8042027
:102490008DF8050002229046009B83F0080353EA62
:1024A0000A030AD15CEA010201D1620705D5302294
:1024B0008DF804204FF001087F1E582804D034A066
:1024C00003900EA802900DE036A0F9E7534660464F
:1024D000009AFEF7F0F884460398825C0298401E4A
:1024E000029002705CEA0100F0D1029806A9081A75
:1024F00000F1200A600702D524F4803400E00127AF
:10250000574502DDA7EB0A0000E0002000EB0A01BE
:10251000009005984144401A0590E00306D45B46BC
:102520002146179A059800F0B3F90544002706E004
:1025300001A85A46C05D179990476D1C7F1C4745FE
:10254000F6DBE0030CD55B462146179A059800F0B0
:102550009FF9054404E030205A46179990476D1CB6
:102560000099481E00900029F5DC08E002980299C5
:102570005A460078491C0291179990476D1CBAF190
:102580000001AAF1010AF1DC65E10000092801005F
:1025900030313233343536373839616263646566D9
:1025A000000000003031323334353637383941429B
:1025B000434445460000000000F058F90544761CED
:1025C000307800287FF4ECAD19B02846BDE8F08FD4
:1025D000620700D4062709F1070222F0070CFCE885
:1025E0000223E14603F000485FEA080C02D00FF234
:1025F000702C0DE05FEA045C02D50FF2682C07E056
:102600005FEAC47C02D00FF2602C01E0AFF2700CE4
:102610004FF0FF3823F00043CDF850C065280CD0B0
:1026200006DC452809D046281DD047283DD13DE08D
:10263000662818D067287ED138E00021112F01DBF1
:10264000112000E0781CCDE9000106A90EA8FFF7D3
:10265000DDFCDDE90F010E9A03910021009207F1E4
:10266000010A04914DE04FF000400097CDE90110C0
:1026700006A90EA8FFF7CAFCDDE90F0203920E9B24
:1026800011990022DDF80CA00093049211B9791C75
:1026900000EB010AB7EB0A0004D4C0F1FF3007F1E8
:1026A000010A0490AAEB0700019044E0012F00DA30
:1026B00001270021112F01DD112000E03846CDE96E
:1026C000000106A90EA8FFF7A1FCDDE90F010E9A93
:1026D0000391002104910092BA4621070CD403997A
:1026E000514500DA8A46BAF1010F05DD009AAAF1D8
:1026F0000101515C302908D0B84202DA10F1040F10
:1027000006DA0121CDE9011015E0AAF10101E9E79E
:10271000002805DC049901440491AAEB000102E0C1
:10272000411C514500DD8A460499401A401C019025
:102730004FF000400290200704D40198504501DB7F
:10274000CDF8048000208DF84F0002980DF14F075E
:10275000B0F1004F25D02B200E9002984FF00208C8
:1027600000280CDA404202902D200E9007E00A214A
:102770000298FDF78AFF3031029007F8011DB8F189
:102780000001A8F10108F2DC02980028EFD1791EBF
:102790000E980870307800F0200040F0450007F8EF
:1027A000020D12A8C01B00F107081498007800B1B0
:1027B000012000EB0A01019801EBE071059841440A
:1027C000401A401E0590E00306D45B462146179A46
:1027D000059800F05DF805441498007818B15A4641
:1027E000179990476D1CE00324D55B462146179A44
:1027F000059800F04DF805441CE00498002807DB1C
:10280000DDE90301884203DD0098405C179901E08F
:10281000179930205A469047049805F10105401C4D
:1028200004900198401E019004D12E205A46179919
:1028300090476D1CBAF10001AAF1010ADDDC05E048
:1028400017F8010B5A46179990476D1CB8F1000113
:10285000A8F10108F4DC5B462146179A0598ABE61F
:102860002D0000002B000000200000002DE9F041A9
:10287000044600251E461746880404D405E0394660
:102880002020B0476D1C641EF9D52846BDE8F081B4
:102890002DE9F041044600251E469046C80301D5A7
:1028A000302700E02027880404D505E0414638465B
:1028B000B0476D1C641EF9D52846BDE8F0814A6812
:1028C000002A06D00A68531C0B6010704868401E2E
:1028D000486070470A68531C0B6010707047000016
:1028E0002DE9F04D8D4F21F0004A86B005460C468B
:1028F000BA452ADBAAEB070028430AD0884882455C
:1029000001DC1AD1CDB106B02846BDE8F04DFFF785
:1029100054BB844A844B2846FDF79EFD07460E466D
:10292000824A834B28462146FDF796FD06B03A467B
:102930003346BDE8F04DFDF7E8BC0120FFF760FB32
:1029400006B0BDE8F04DFFF73DBB7A48824542DA5C
:10295000BAF1795F0BDA2846FFF7B6FA042808BF08
:10296000FFF736FB284606B02146BDE8F08D2A4623
:102970000B461046FDF770FD834602466E480E4634
:102980000B4606217844FFF7C3FA5A463346FDF753
:1029900063FD804669488A465A4633460421784496
:1029A000FFF7B6FA5A463346FDF756FD00223B467E
:1029B000FDF7ABFC02460B4640465146FDF7BEFD17
:1029C0002A462346FDF748FD06B02A462346BDE8C1
:1029D000F04DFDF79ABC284624F0004100223D4608
:1029E0003B46FDF736FD4FF0FF32FDF74AFF064646
:1029F000024653480F460B4606217844FFF788FAF3
:102A000032463B46FDF728FDCDE900014D483246F0
:102A10003B4604217844FFF77BFA32463B46FDF7FC
:102A20001BFD00222B46FDF770FC834602913046C9
:102A3000394600F0FFFC804643480D46504517DC00
:102A4000DDE900015A46029BFDF778FD42462B4620
:102A5000FDF702FD42462B46FDF757FC0122FDF72C
:102A600010FF304A304BFDF7F1FC304A304B4CE060
:102A70004FF0000A52460B464046FDF746FCCDE9B2
:102A8000031052462B4610461946FDF7E5FC324628
:102A90003B46FDF7DEFCDDE90332FDF74FFD064660
:102AA0000F46DDE900015A46029BFDF747FD8346CC
:102AB0000091012230463946FDF7E3FE194A1A4BD0
:102AC000FDF7C7FC06460F46012240462946FDF7A2
:102AD000D8FE5A46009BFDF7BFFC32463B46FDF749
:102AE000B5FC06460F46012250462946FDF7C9FEB1
:102AF0000E4DDFF858802A464346FDF7AAFC3246C1
:102B00003B46FDF7A6FC2A464346FDF7A2FC002CF7
:102B1000D8BF81F0004106B0BDE8F08D0000F03F65
:102B20000000F07F075C143326A6913C182D445416
:102B3000FB21F93F0000E03F600B0000760B000036
:102B4000EA0A0000000B00003333EF3FFB21E93FAE
:102B50002DE9F84F04460D4621F0004000917349DD
:102B6000814211DC7249884201DC06D12CB1204639
:102B70002946BDE8F84FFFF720BA6E48002DCCBFBC
:102B80006D496E49BDE8F88F6D49814211DD6D498F
:102B90008142D8BF4FF0FF366DDD20462946FFF752
:102BA00093F9042808BFFFF713FA20462946BDE829
:102BB000F88F6549654F25F00045814233DD644952
:102BC000814219DD002632464FF0804320462946D7
:102BD000FDF79BFB80468A46012220462946FDF7E9
:102BE00050FE00223B46FDF731FC42465346FDF7BE
:102BF000A5FC04460D463EE001260022BA463B46AF
:102C000020462946FDF781FB80460F4600225346A9
:102C100020462946FDF71AFC42463B46FDF78EFC4E
:102C200004460D4627E04B4981421BDDDFF828A111
:102C300002260022534620462946FDF70DFC0022BD
:102C40003B46FDF762FB80460F4600225346204676
:102C50002946FDF7FBFB42463B46FDF76FFC044669
:102C60000D4608E0032622462B4600203B49FDF78F
:102C700065FC04460D4622462B4610461946FDF7D4
:102C8000EBFB8B46824602460B46FDF7E5FB07460B
:102C90000246334888460B4606217844FFF738F948
:102CA00052465B46FDF7D8FB82462E488B463A4695
:102CB000434605217844FFF72BF93A464346FDF792
:102CC000CBFB02460B46002E504659460CDAFDF768
:102CD0001CFB22462B46FDF7BFFB01B022462B46CC
:102CE000BDE8F04FFDF7B5BBFDF70FFB22462B46C5
:102CF000FDF7B2FB1C4A7A4402EBC603D3E900237A
:102D0000FDF7A4FB22462B46FDF7A0FB174A7A44A9
:102D100002EBC603D3E90023FDF79BFB009A002AD0
:102D2000B8BF81F00041BDE8F88F000000001044FA
:102D30000000F07F182D4454FB21F93FFB21F9BF1F
:102D40000000DC3F0000203E0000F33F0000F03FA9
:102D50000000E63F008003400000F83F0000F0BFA5
:102D600002090000C00800005E08000026080000FC
:102D70002DE9F04D9446CCF1000423F000464CEAD6
:102D80000404524F46EAD4749A46884621F0004221
:102D9000BC4206D8454240EA050442EAD474BC422B
:102DA00004D9BDE8F04D6246FFF70AB9AAF14055D3
:102DB000A5F17F6555EA0C040BD0022404EAAA743D
:102DC000434DDFF810E144EAD87452EA000B04D016
:102DD0000CE0BDE8F04DFFF7BBBE002C14BF012C8A
:102DE000BDE8F08D022C30D0032C32D056EA0C0B0B
:102DF0000AD0BE4220D1BA4209D126F0804622F044
:102E000080423346114617E000291ADB25E0DFF83F
:102E1000C8B0FB44002C04BFDBE90001BDE8F08D25
:102E2000012C02BFDBE9000181F00041BDE8F08D1B
:102E3000022C0AD0032C0CD0BA4212D1B8F1000FE8
:102E40000BDA23482549BDE8F08D28462449BDE822
:102E5000F08D28467146BDE8F08D1D482149BDE83A
:102E6000F08D921B12153C2AC4BF19481D490EDC77
:102E7000BAF1000FBEBF12F13C0F0020014606DB85
:102E80006246FDF75BFB21F00041FFF761FE002C7D
:102E900008BFBDE8F08D012C04BF81F00041BDE802
:102EA000F08D114A114B022C07D0FDF7CFFA2A46BC
:102EB000BDE8F04D0A4BFDF7C9BAFDF7C7FA2A463F
:102EC000BDE8F04D064BFDF7C4BA00000000F07FEE
:102ED000182D4454FB2109C0BA070000FB21F9BF9B
:102EE000FB210940FB21F93F075C143326A6A13CD6
:102EF0002DE9FF4F89B01746DDE9165200244C4EEC
:102F0000884681462C80A246B07B694600F09AF93B
:102F10004FF0FF3B18B158460DB0BDE8F08F7089F7
:102F200010F0140F3CD0009909BA21F0FF039DF86E
:102F300003100B433B6001991B1409BA21F0FF02F7
:102F40009DF807105B430A437A6002999DF80B4095
:102F500009BA21F0FF012143B960039C091424BA86
:102F600024F0FF0C9DF80F4012144CEA040CC7F833
:102F70000CC04FEA2C47494302FB023207FB071102
:102F800011441024A1F17061B1F1007F04D900F067
:102F9000A1F9A5F800A0BEE7298841F48071298035
:102FA0004206694611D50A19A41D13885BBAA8F810
:102FB000003053885BBAA8F80230928852BAA8F859
:102FC00004202A8842F008022A8010F4C07F11D021
:102FD0000A19A41D13885BBAA9F8003053885BBA9C
:102FE000A9F80230928852BAA9F804202A8842F03F
:102FF00070022A80800716D00C44E07800F0C005EB
:1030000000F03F016078C00706D0C80801F0070152
:103010003268491C02B190476078000703D5716897
:1030200009B1A80988470C9800F03CF8002073E724
:1030300094190020034909680A685206FCD5C2B2F7
:103040004A607047C408002086B0FDF7D1FDFEF746
:10305000A5FDFEF763FA0E4841694FF41650884704
:10306000FEF766FC2A461146204600F01DF820684F
:10307000FDF7DCFA02460B4606A16846FEF7FAFEAB
:10308000694606A0FEF7E6FE6420FEF74AFAE9E785
:103090001400002050252E316600000025730D0A13
:1030A00000000000704700002DE9F74F8EB00CA91A
:1030B00002A8CDE900010BAB03AA09A907A8FFF7F5
:1030C00017FF18B1012011B0BDE8F08FBDF808005E
:1030D000C0057DD50398FDF7A0FA6FF01D042146C9
:1030E000FDF707F982460498FDF797FA2146FDF7A8
:1030F00000F981460598FDF790FA2146FDF7F9F8A9
:1031000080460698FDF789FA2146FDF7F2F8054654
:1031100001215046FDF7EDF806464146FDF7B7F8A8
:1031200004464FF040414846FDF7B1F807462946AE
:10313000FDF7ADF82146FDF752F8FDF777FAFFF7F6
:10314000CFFB4FF0663B5A463D4BFDF785F9FDF747
:1031500080FA0E99086001214046FDF7CAF8414601
:103160000090FDF794F8044638464946FDF78FF87D
:103170002146FDF786F84FF07E51FDF730F8FDF758
:1031800055FA07460C4630464946FDF780F8064694
:1031900029460098FDF77BF83146FDF720F8FDF74A
:1031A00045FA3A462346FFF7E3FD5A46244BFDF71E
:1031B00053F9FDF74EFA0F99086029460846FDF7C6
:1031C00066F8074641460846FDF761F8064600E006
:1031D00034E049460846FDF75AF804465146084689
:1031E000FDF755F82146FCF7FAFF3146FDF749F89F
:1031F0003946FDF746F8FDF719FA06460C4629460A
:103200005046FDF744F8054641464846FDF73FF86D
:103210002946FCF7E4FF0121FDF76BF8FDF706FAFC
:1032200032462346FFF7A4FD5A46054BFDF714F935
:10323000FDF70FFA10990860002044E7022042E7EA
:1032400066A64C402DE9F843214C0646174694F8F3
:10325000240089464FF0FF3890B3A07A80B32068ED
:103260006B460222817A60680078FEF7DBFB38BB90
:10327000BDF8000045BAB54202D2002038701FE008
:1032800060684188B5EB510F11D9216800786B4611
:10329000497C0122FEF7C6FB90B99DF80000C006EC
:1032A00005D500F017F86FF00100BDE8F88320683D
:1032B000F2B24B46C17A60680078FEF7B3FB08B102
:1032C0004046F2E7B5FBF6F0401E38700020ECE710
:1032D00048000020F8B5564C4FF0FF36A07A002881
:1032E0007DD000258DF8005020686B460122C17BFF
:1032F00060680078FEF723FC002870D120686B46D8
:103300000122417960680078FEF719FC002866D137
:1033100020686B460122017960680078FEF70FFC97
:1033200000285CD194F82400E0B30C208DF8000054
:1033300020686B460122017960680078FEF7FFFB88
:10334000002872D13220FEF7ECF8C0208DF8000082
:10335000A07AC00702D0E0208DF8000020686B46FC
:103360000122017960680078FEF7E9FB00285CD152
:10337000607C18B102208DF8000001E08DF800504B
:1033800020686B460122C17B60680078FEF7D7FB9E
:1033900028BB8DF8005020686B4601224179606897
:1033A00000783EE0FFE704208DF8000020686B46BF
:1033B0000122017960680078FEF7C1FB78B9A07C32
:1033C00090B9A07AC0070FD05FF060008DF80000C0
:1033D00020686B46012201796068007800E024E0F3
:1033E000FEF7ADFB08BB01E04020EFE73220FEF71F
:1033F00098F8607C18B101208DF8000001E08DF88C
:10340000005020686B460122C17B60680078FEF79F
:1034100096FB50B92068064B012241796068103351
:103420000078FEF78CFB002800D03046F8BD000085
:10343000480000202DE9F04106460F46FDF77AFAD4
:10344000041E0D4618BF0120284320F00040C0F1A3
:103450007F6000F1E040C00F0ED0301C18BF01208B
:10346000384320F00040C0F17F6000F1E040C00F21
:1034700004BF0120FEF7C4FD20462946BDE8F081C7
:103480000000000000000000010203040607080914
:10349000000000000102030475191A0C6A231B1CAA
:1034A0001F207274433B4138393A6B6C376F0624E6
:1034B0006D6E70006800000476005401F7FD000195
:1034C0008300000000080000000100183200050021
:1034D000000020410000D242295C0F3E9A99993E9B
:1034E0003333733F295C0F3E555555555555C53FF0
:1034F0007D6FEB0312D6D4BF5544880E55C1C93F2A
:103500003B8F68B52882A4BF88B20175E0EF493FC0
:1035100009F7FD0DE13D023F4B2D8A1C273A03C000
:10352000C88A599CE52A004059018D1B6C06E6BFEC
:1035300082922EB1C5B8B33F4FBB610567ACDD3F8A
:10354000182D4454FB21E93F9BF681D20B73EF3FCA
:10355000182D4454FB21F93FE2652F227F2B7A3C42
:10356000075C143326A6813CBDCBF07A8807703CFB
:10357000075C143326A6913CC4EB98999999C9BF6E
:10358000711623FEC671BCBF6D9A74AFF2B0B3BFA3
:103590009AFDDE522DDEADBF2F6C6A2C44B4A2BF63
:1035A0000D5555555555D53FFF8300922449C23FCF
:1035B0006E204CC5CD45B73F513DD0A0660DB13F03
:1035C000EB0D76244B7BA93F11DA22E33AAD903F15
:1035D0000000000000000000F83500080000002096
:1035E00084000000E01F00087C36000884000020F2
:1035F000241D0000F01F0008010000001000000062
:10360000000000000024F4000000000000000000A2
:1036100004090020040D00200411002004150020DE
:10362000A5150008E91500088515000871150008A2
:103630002D16000879160008000000004800000060
:1036400098340008B43400080000000000000000B6
:10365000000000000000000000000000000000006A
:103660000000000000000000C0340008010000005D
:0C3670000100000001000000000000004C
:0400000508000131BD
:00000001FF
